:0300000002000EED
:10000E0078FFE4F6D8FD9000007FFF7E02E4F0A3B7
:0A001E00DFFCDEFA75813402006396
:1006A30002090000020B0000020F0000020D00000F
:1004500043A23C90F02A743CF0A3E4F043A1F8904E
:10046000F01A74F8F0A3E4F053A2BF90F02AE0442D
:1004700040F0A3E054BFF0439A3090F00A7430F09B
:10048000A3E4F0D294D297D2A4D295D2A2D2A5D28C
:0D04900093D296D2A3D285D2845308FE22C7
:10068F008E318F32E5321532AE3170021531FFEFF8
:04069F004E70F12286
:040522008E118F1295
:10052600E5121512AE1170021511FFEF4E601D7522
:100536001300751400C3E51494B3E513940350E057
:0C0546000514E5147002051380EB80D44E
:010552002286
:10067A008E338F34E5344533600AE534153470021D
:05068A00153380F02291
:1005530020A627050EE50E7002050D20A615C3E59E
:100563000E942CE50D9401400A750D00750E0043A1
:10057300080122750D00750E0022750D00750E0021
:010583002255
:1000A800C2A5C296C2937F3C7E00120522D296D288
:1000B800A3C293C2A2C2A57F3C7E00120522D2939E
:1000C800D296D2A3C295C2A2C2A57F3C7E001205D9
:1000D80022D2A5C295C2A4C2A27F3C7E00120522EC
:1000E800D2A2D2A5C295C297C2A47F3C7E001205B7
:1000F80022D295D2A2D2A5C294C297C2A47F3C7E36
:1001080000120522D2A4C294C297C2A37F3C7E00EB
:10011800120522D297D2A4C294C296C2A37F3C7E73
:1001280000120522D294D297D2A4C293C297C2A336
:080138007F3C7E00120522222B
:100611008E158F168C178D18C2A3C296C293AF1672
:10062100AE1512067AD2A3D296D293AF18AE171294
:03063100067A2224
:10014000750971750AC7E50820E02D74B0250AF518
:100150000A74FF3509F509C374C7950AFF747195D0
:1001600009FEAD0AAC09120611C3E50A9450E5096F
:10017000940050D2800280CE750971750AC7E508D7
:1001800020E02C74B0250AF50A74FF3509F509C37F
:1001900074C7950AFD74719509FCAF0AAE09120681
:1001A00011C3E50A9450E509940050D22280CF2271
:100634008E198F1A8C1B8D1CC2A5C2A2C295AF1A2B
:10064400AE1912067AD2A5D2A2D295AF1CAE1B1255
:03065400067A2201
:1001B000750971750AC7E50820E02D74B0250AF5A8
:1001C0000A74FF3509F509C374C7950AFF74719560
:1001D00009FEAD0AAC09120634C3E50A9450E509DC
:1001E000940050D2800280CE750971750AC7E50867
:1001F00020E02C74B0250AF50A74FF3509F509C30F
:1002000074C7950AFD74719509FCAF0AAE09120610
:1002100034C3E50A9450E509940050D22280CF22DD
:100657008E1D8F1E8C1F8D20C2A4C297C294AF1E01
:10066700AE1D12067AD2A4D297D294AF20AE1F1233
:03067700067A22DE
:10022000750971750AC7E50820E02D74B0250AF537
:100230000A74FF3509F509C374C7950AFF747195EF
:1002400009FEAD0AAC09120657C3E50A9450E50948
:10025000940050D2800280CE750971750AC7E508F6
:1002600020E02C74B0250AF50A74FF3509F509C39E
:1002700074C7950AFD74719509FCAF0AAE091206A0
:1002800057C3E50A9450E509940050D22280CF224A
:100584008E218F228C238D24C2A3C296C293C2A52E
:10059400C2A2C295AF22AE2112067AD2A3D296D2BB
:0F05A40093D2A5D2A2D295AF24AE2312067A220B
:10029000750971750AC7E50820E02D74B0250AF5C7
:1002A0000A74FF3509F509C374C7950AFF7471957F
:1002B00009FEAD0AAC09120584C3E50A9450E509AC
:1002C000940050D2800280CE750971750AC7E50886
:1002D00020E02C74B0250AF50A74FF3509F509C32E
:1002E00074C7950AFD74719509FCAF0AAE09120531
:1002F00084C3E50A9450E509940050D22280CF22AD
:1005B3008E258F268C278D28C2A4C297C294C2A5EC
:1005C300C2A2C295AF26AE2512067AD2A4D297D282
:0F05D30094D2A5D2A2D295AF28AE2712067A22D3
:10030000750971750AC7E50820E02D74B0250AF556
:100310000A74FF3509F509C374C7950AFF7471950E
:1003200009FEAD0AAC091205B3C3E50A9450E5090C
:10033000940050D2800280CE750971750AC7E50815
:1003400020E02C74B0250AF50A74FF3509F509C3BD
:1003500074C7950AFD74719509FCAF0AAE091205C0
:10036000B3C3E50A9450E509940050D22280CF220D
:1004E7008E298F2A8C2B8D2CC2A4C297C294C2A5A9
:1004F700C2A2C295C293C296C2A3AF2AAE29120660
:100507007AD2A4D297D294D2A5D2A2D295D293D29C
:0B05170096D2A3AF2CAE2B12067A2266
:10037000750971750AC7E50820E02D74B0250AF5E6
:100380000A74FF3509F509C374C7950AFF7471959E
:1003900009FEAD0AAC091204E7C3E50A9450E50969
:1003A000940050D2800280CE750971750AC7E508A5
:1003B00020E02C74B0250AF50A74FF3509F509C34D
:1003C00074C7950AFD74719509FCAF0AAE09120451
:1003D000E7C3E50A9450E509940050D22280CF2269
:1005E2008E2D8F2E8C2F8D30C2A4C297C294C293AF
:1005F200C296C2A3AF2EAE2D12067AD2A4D297D241
:0F06020094D293D296D2A3AF30AE2F12067A22A3
:1003E000750971750AC7E50820E02D74B0250AF576
:1003F0000A74FF3509F509C374C7950AFF7471952E
:1004000009FEAD0AAC091205E2C3E50A9450E509FC
:10041000940050D2800280CE750971750AC7E50834
:1004200020E02C74B0250AF50A74FF3509F509C3DC
:1004300074C7950AFD74719509FCAF0AAE091205DF
:10044000E2C3E50A9450E509940050D22280CF22FD
:10049D001206B41206C47FC47E091205227FC47EE3
:1004AD00091205227FC47E091205227596AA75963A
:1004BD0055759701E50820E005D2851200A8E508DD
:1004CD0030E0E8D294D297D2A4D295D2A2D2A5D2BE
:0A04DD0093D296D2A3C28580D222EA
:1006B400438901438E08758CF0758A5F4388102244
:0906C40075A80275B800D2AF223E
:03000B00020003ED
:07000300758CF0758A5F3275
:1000280002049DE493A3F8E493A34003F68001F24D
:1000380008DFF48029E493A3F85407240CC8C333D9
:10004800C4540F4420C8834004F456800146F6DFA8
:10005800E4800B01020408102040809006A3E47E8F
:10006800019360BCA3FF543F30E509541FFEE4939D
:10007800A360010ECF54C025E060A840B8E493A364
:10008800FAE493A3F8E493A3C8C582C8CAC583CA8F
:10009800F0A3C8C582C8CAC583CADFE9DEE780BE47
:0106B3000046
:00000001FF
