:030000000200B14A
:1000B10078FFE4F6D8FD9000007FFF7E02E4F0A314
:0A00C100DFFCDEFA7581350201064E
:1006BC00010B0002090000020C00000210000002F5
:0306CC000E00001D
:10045B0043A23C90F02A743CF0A3E4F043A1F89043
:10046B00F01A74F8F0A3E4F053A2BF90F02AE04422
:10047B0040F0A3E054BFF0439A3090F00A7430F090
:10048B00A3E4F090F005F0D294D297D2A4D295D2F7
:10049B00A2D2A5D293D296D2A3D285D2845308FEF0
:0104AB00222E
:1006A8008E328F33E5331533AE3270021532FFEFD9
:0406B8004E70F1226D
:040532008E128F1383
:100536007596AA759655759701E5131513AE127043
:10054600021512FFEF4E601D751400751500C3E508
:100556001594B3E514940350E00515E515700205EE
:050566001480EB80D4BD
:01056B00226D
:100693008E348F35E5354534600AE53515357002FE
:0506A300153480F02277
:10056C0020A627050FE50F7002050E20A615C3E582
:10057C000F942CE50E9401400A750E00750F004384
:10058C00080122750E00750F0022750E00750F0004
:01059C00223C
:10000E00C285C2A5C296C2937F3C7E00120532D233
:10001E0096D2A3C293C2A2C2A57F3C7E0012053225
:10002E00D293D296D2A3C295C2A2C2A57F3C7E0025
:10003E00120532D2A5C295C2A4C2A27F3C7E001286
:10004E000532D2A2D2A5C295C297C2A47F3C7E0031
:10005E00120532D295D2A2D2A5C294C297C2A47F63
:10006E003C7E00120532D2A4C294C297C2A37F3C3A
:10007E007E00120532D297D2A4C294C296C2A37F3A
:10008E003C7E00120532D294D297D2A4C293C2976C
:10009E00C2A37F3C7E00120532D2857F017E001204
:0300AE00053222F6
:10062A008E168F178C188D19C2A3C296C293AF1754
:10063A00AE16120693D2A3D296D293AF19AE18125F
:03064A00069322F2
:10014B00750971750AC7E50820E02D74B0250AF50D
:10015B000A74FF3509F509C374C7950AFF747195C5
:10016B0009FEAD0AAC0912062AC3E50A9450E5094B
:10017B00940050D2800280CE750971750AC7E508CC
:10018B0020E02C74B0250AF50A74FF3509F509C374
:10019B0074C7950AFD74719509FCAF0AAE09120676
:1001AB002AC3E50A9450E509940050D22280CF224D
:10064D008E1A8F1B8C1C8D1DC2A5C2A2C295AF1B0D
:10065D00AE1A120693D2A5D2A2D295AF1DAE1C1220
:03066D00069322CF
:1001BB00750971750AC7E50820E02D74B0250AF59D
:1001CB000A74FF3509F509C374C7950AFF74719555
:1001DB0009FEAD0AAC0912064DC3E50A9450E509B8
:1001EB00940050D2800280CE750971750AC7E5085C
:1001FB0020E02C74B0250AF50A74FF3509F509C304
:10020B0074C7950AFD74719509FCAF0AAE09120605
:10021B004DC3E50A9450E509940050D22280CF22B9
:100670008E1E8F1F8C208D21C2A4C297C294AF1FE3
:10068000AE1E120693D2A4D297D294AF21AE2012FE
:03069000069322AC
:10022B00750971750AC7E50820E02D74B0250AF52C
:10023B000A74FF3509F509C374C7950AFF747195E4
:10024B0009FEAD0AAC09120670C3E50A9450E50924
:10025B00940050D2800280CE750971750AC7E508EB
:10026B0020E02C74B0250AF50A74FF3509F509C393
:10027B0074C7950AFD74719509FCAF0AAE09120695
:10028B0070C3E50A9450E509940050D22280CF2226
:10059D008E228F238C248D25C2A3C296C293C2A511
:1005AD00C2A2C295AF23AE22120693D2A3D296D287
:0F05BD0093D2A5D2A2D295AF25AE2412069322D7
:10029B00750971750AC7E50820E02D74B0250AF5BC
:1002AB000A74FF3509F509C374C7950AFF74719574
:1002BB0009FEAD0AAC0912059DC3E50A9450E50988
:1002CB00940050D2800280CE750971750AC7E5087B
:1002DB0020E02C74B0250AF50A74FF3509F509C323
:1002EB0074C7950AFD74719509FCAF0AAE09120526
:1002FB009DC3E50A9450E509940050D22280CF2289
:1005CC008E268F278C288D29C2A4C297C294C2A5CF
:1005DC00C2A2C295AF27AE26120693D2A4D297D24E
:0F05EC0094D2A5D2A2D295AF29AE28120693229F
:10030B00750971750AC7E50820E02D74B0250AF54B
:10031B000A74FF3509F509C374C7950AFF74719503
:10032B0009FEAD0AAC091205CCC3E50A9450E509E8
:10033B00940050D2800280CE750971750AC7E5080A
:10034B0020E02C74B0250AF50A74FF3509F509C3B2
:10035B0074C7950AFD74719509FCAF0AAE091205B5
:10036B00CCC3E50A9450E509940050D22280CF22E9
:1004F7008E2A8F2B8C2C8D2DC2A4C297C294C2A595
:10050700C2A2C295C293C296C2A3AF2BAE2A12064D
:1005170093D2A4D297D294D2A5D2A2D295D293D273
:0B05270096D2A3AF2DAE2C120693223B
:10037B00750971750AC7E50820E02D74B0250AF5DB
:10038B000A74FF3509F509C374C7950AFF74719593
:10039B0009FEAD0AAC091204F7C3E50A9450E5094E
:1003AB00940050D2800280CE750971750AC7E5089A
:1003BB0020E02C74B0250AF50A74FF3509F509C342
:1003CB0074C7950AFD74719509FCAF0AAE09120446
:1003DB00F7C3E50A9450E509940050D22280CF224E
:1005FB008E2E8F2F8C308D31C2A4C297C294C29392
:10060B00C296C2A3AF2FAE2E120693D2A4D297D20C
:0F061B0094D293D296D2A3AF31AE30120693226F
:1003EB00750971750AC7E50820E02D74B0250AF56B
:1003FB000A74FF3509F509C374C7950AFF74719523
:10040B0009FEAD0AAC091205FBC3E50A9450E509D8
:10041B00940050D2800280CE750971750AC7E50829
:10042B0020E02C74B0250AF50A74FF3509F509C3D1
:10043B0074C7950AFD74719509FCAF0AAE091205D4
:10044B00FBC3E50A9450E509940050D22280CF22D9
:1004AC0012045B1206D01206E07FC47E09120532DC
:1004BC007FC47E091205327FC47E091205327596FF
:1004CC00AA759655759701E50820E00312000EE514
:1004DC000830E0EAD294D297D2A4D295D2A2D2A577
:0B04EC00D293D296D2A3C28580D42206
:1006D000438901438E08758CF0758A5F4388102228
:0906E00075A80275B800D2AF2222
:03000B00020003ED
:07000300758CF0758A5F3275
:1000CB000204ACE493A3F8E493A34003F68001F29B
:1000DB0008DFF48029E493A3F85407240CC8C33336
:1000EB00C4540F4420C8834004F456800146F6DF05
:1000FB00E4800B01020408102040809006BCE47ED3
:10010B00019360BCA3FF543F30E509541FFEE493F9
:10011B00A360010ECF54C025E060A840B8E493A3C0
:10012B00FAE493A3F8E493A3C8C582C8CAC583CAEB
:10013B00F0A3C8C582C8CAC583CADFE9DEE780BEA3
:0106CF00002A
:00000001FF
