:1018EA00C2AF7596AA759655E4F58F758EE7D2AF95
:0118FA0022CB
:0D000E00C2AF75870490F690E4F0D2AF22E7
:0E18FB00C2AF7596AA759655759703D2AF22A7
:0E190900C2AF7596AA759655439701D2AF22CC
:10159000759AC175A1FF75A27175A3B8E4F580F5C0
:1015A00090F5A0F5B090F00204F0A3F0A3F0A3F042
:1015B00090F023F090F036F090F022F090F036F0BA
:0515C00090F030F02264
:1017FD00E4F5A8F5B8F5AAF5CFF5ACF5ADF5AEF570
:10180D00AFF588F5C9F5B2F5B4F5B5F5B6F5B7C2CE
:02181D00AF22F8
:1018C600758912758CB0758AB0C28DD2B9D2A9D27B
:0218D6008C2262
:0D191700758DF0758B60C28FD2ABD28E2221
:0919480043D201E4F5DBF5DA22DB
:01000A0022D3
:10183C0090F5C07483F090F5C274FFF090F5C1740C
:0B184C00ECF0759105759840D2AC22BD
:10136B0090F1207410F090F1237401F0A3F0A3F02E
:10137B0090F12A7404F090F12CF090F12EF090F192
:10138B0031F090F13074B0F090F1357404F090F1CD
:10139B003474B0F090F1397404F090F13874B0F00B
:1013AB0090F1417401F090F140742CF090F1457480
:1013BB0001F090F144742CF090F1497401F090F12C
:1013CB0048742CF090F1277415F090F122E4F09012
:1013DB00F121743FF090F1607407F0A37413F0A344
:1013EB00F0A3F090F01714F090F01404F090F016B6
:1013FB0004F090F01304F090F01504F090F000045A
:0E140B00F090F129743FF090F1267415F02254
:1016590090F500740EF090F502E4F090F50CF0901E
:10166900F506741AF0A37404F043B98090F500E00C
:0D1679004480F090F5087401F0A3E4F02225
:1018700090F503E4F090F5057418F090F50DE4F0A0
:0818800090F503E04480F02222
:0100220022BB
:10189E0090F5297433F0A37410F0A3E4F090F529B9
:0518AE00E04480F0227F
:0700030075BF0375BEBC22AE
:1015F9001218EA12000E1218FB121909121590128C
:1016090017FD1218C612191712194812000A1218D2
:101619003C12136B12187012002212189E0200035A
:100D3100C1184100590042004F000042005A000012
:100D4100420041000042004D0000420047000042C5
:100D51000055000042003D000042004500004200F5
:100D61005E00004200390000420051000042005C78
:100D710000004200600000420043000042005300B6
:100D81000042003B000042004B00004200570000BF
:0A0D910042003F000042004900004C
:10091F0075DF4075DEC843DF02E5DF20E1FBAFDDA9
:10092F00EFFEADDC7C00E42DFFEC3E90004FF0A31A
:10093F00EFF0E4F5DDF5DC75DFC075DEC243DF02F5
:10094F00E5DF20E1FBAFDDEFFEADDC7C00E42DFF4A
:10095F00EC3E900047F0A3EFF0E4F5DDF5DC75DF3A
:10096F00D075DEC743DF02E5DF20E1FBAFDDEFFE31
:10097F00ADDC7C00E42DFFEC3E90005EF0A3EFF0C9
:10098F00E4F5DDF5DC75DFC075DEC943DF02E5DFB9
:10099F0020E1FBAFDDEFFEADDC7C00E42DFFEC3E94
:1009AF00900043F0A3EFF0E4F5DDF5DC90004FE0AD
:1009BF00FEA3E0FF90005BE02FF090005AE03EF0C6
:1009CF00900047E0FEA3E0FF900056E02FF090006C
:1009DF0055E03EF090005EE0FEA3E0FF90003AE0AD
:1009EF002FF0900039E03EF0900059E004F0E06401
:1009FF00086003020B02F0A3E0FEA3E07803CEC36E
:100A0F0013CE13D8F9FF90004DEEF0FCA3EFF0FDDD
:100A1F00900055E0C313FEA3E013FFEEC4F854F0AB
:100A2F00C868FEEFC4540F48FF900045EEF0A3EFE7
:100A3F00F0900039E0C313FFA3E013900051CFF003
:100A4F00A3EFF0900051E0FEA3E07802CEC313CEE7
:100A5F0013D8F9F0EE900051F0900057E0C313FE59
:100A6F00A3E0137802CEC313CE13D8F9FF90003F43
:100A7F00EEF0A3EFF0900053E0C313FFA3E0139049
:100A8F00003BCFF0A3EFF0D3ED9478EC940040113E
:100A9F0090004DE0FFA3E0900041CFF0A3EFF08076
:100AAF0007E4900041F0A3F090003DE0FEA3E0FFCB
:100ABF002406FDE43EFC900045E0FAA3E0FBD39D45
:100ACF00EA9C500EEB2406FDE43AFCD3EF9DEE9C1E
:100ADF00400890003DEAF0A3EBF0E490005AF0A339
:100AEF00F0900055F0A3F0900039F0A3F090005370
:100AFF00F0A3F090007DE0C394C8501E900051E029
:100B0F00FEA3E0FF90005CEEF0A3EFF02420FFEED9
:100B1F003403900060F0A3EFF02290007D74D2F0C8
:100B2F0090005CE0FEA3E0FFD39400EE9400400A37
:0B0B3F00EF9464EE94005002D21822E4
:1014FE00900041E0FCA3E0FDD394C8EC9400401DA5
:10150E00D20BE41202FA7B067A817995783E1201AB
:10151E0076120333900033EEF0A3EFF022C20BD21B
:10152E0006C208C205C20AC200C20DC209E490007A
:0B153E0026F0A3F0900033F0A3F02291
:101097000001010201020203010202030203030429
:1010A7000102020302030304020303040304040509
:1010B70001020203020303040203030403040405F9
:1010C70002030304030404050304040504050506D9
:1010D70001020203020303040203030403040405D9
:1010E70002030304030404050304040504050506B9
:1010F70002030304030404050304040504050506A9
:101107000304040504050506040505060506060788
:101117000102020302030304020303040304040598
:101127000203030403040405030404050405050678
:101137000203030403040405030404050405050668
:101147000304040504050506040505060506060748
:101157000203030403040405030404050405050648
:101167000304040504050506040505060506060728
:101177000304040504050506040505060506060718
:1011870004050506050606070506060706070708F8
:10119700070400050203010707010302050004070E
:100D9B000169004100280041003200C10FC103C1AD
:100DAB0007410021004100220041002500C1024102
:100DBB00001900420030000042002B000042002EC0
:100DCB00000042000000004600060000000000008A
:100DDB0042001700004200040000C10BC104C10512
:100DEB00C10AC100C109C108C10D41000300420085
:100DFB0035000041000200C106024F0000015900FE
:100E0B00015A00065B000000000000C10CC101414B
:100E1B0000140002490000024D0000014800014689
:100E2B000001510001470002440000C10E026300A3
:100E3B0000045500000000202024000000000000EA
:100E4B000000000000000000000000000000000097
:100E5B0000000000000000000000015400420015DB
:100E6B00000042001F000042002600004200330039
:100E7B000041002D000265000041001A00420037BE
:100E8B00000046000E00000000000044001B0000A4
:100E9B000000420029000042002300000252000023
:100EAB0042000C0000024B000002670000026100D0
:010EBB000036
:1017010090F1647434F0E552FF90F141EFF090F103
:1017110040E553F090F145E4F090F144F090F12967
:041721007405F02239
:1017250090F164741CF0E552FF90F141EFF090F1F7
:1017350040E553F090F149E4F090F148F090F1293B
:041745007411F02209
:1017490090F1647413F0E552FF90F145EFF090F1D8
:1017590044E553F090F149E4F090F148F090F12913
:041769007414F022E2
:10176D0090F1647431F0E552FF90F145EFF090F196
:10177D0044E553F090F141E4F090F140F090F129FF
:04178D007405F022CD
:1017910090F164740DF0E552FF90F149EFF090F192
:1017A10048E553F090F141E4F090F140F090F129D7
:0417B1007411F0229D
:1017B50090F1647407F0E552FF90F149EFF090F174
:1017C50048E553F090F145E4F090F144F090F129AB
:0417D5007414F02276
:100B4A0090001AE0C39F5003020CF8900021E0D3F2
:100B5A0094065003020CF8E490001AF0900015E095
:100B6A00FEA3E0FF900027E09FFF900026E09EFE94
:100B7A00900037F0A3EFF0900010E0FDA3E0A3CDC2
:100B8A00F0A3EDF090000EE0FDA3E0A3CDF0A3EDFD
:100B9A00F090000EEEF0A3EFF0A3E0FCA3E0FDC39B
:100BAA00EF9DFDEE9CFC1202FAAB0CAA0BA90AA857
:100BBA0009120176C004C005C006C00790000EE005
:100BCA00FCA3E0FDEC1202FAAB10AA0FA90EA80DC5
:100BDA00120176D003D002D001D000120085C004E1
:100BEA00C005C006C007900012E0FEA3E0FF900017
:100BFA000FE02FFD90000EE03EFC900011E025E092
:100C0A00FF900010E033FEC3ED9FFDEC9EFC120244
:100C1A00FAAB14AA13A912A811120176D003D002B2
:100C2A00D001D00012008590001B1204C8AC15AD8B
:100C3A0016EC1202FA90001BE0F8A3E0F9A3E0FA1E
:100C4A00A3E0FB12027C6010400EAC15AD16EC124C
:100C5A0002FA90001B1204C8C3E49516FDE4951528
:100C6A00FC1202FA90001BE0F8A3E0F9A3E0FAA351
:100C7A00E0FB12027C5014C3E49516FDE49515FCC2
:100C8A001202FA90001B1204C88014E4900029F0A2
:100C9A00A3F0600BE024FFF0900029E034FFF0900D
:100CAA000029E0FCA3E0FDE41202FAA804A905AABF
:100CBA0006AB0790001BE0FCA3E0FDA3E0FEA3E067
:100CCA00FF120081C004C005C006C00790000CE0F6
:100CDA00FCA3E0FDEC1202FAD003D002D001D0004E
:100CEA0012008512033390000CEEF0A3EFF0C390CC
:100CFA00000DE0941E90000CE0648094805006E49D
:100D0A00F0A3741EF0D390000DE094B090000CE0B4
:100D1A006480948440077404F0A374B0F090000CCB
:070D2A00E4F0A37432F02293
:1017D900300E0BC20EE4900015F0A3F08011AFDBC0
:1017E900EFFEADDA7C00E42DF564EC3EF563E4F53B
:0417F900DBF5DA2220
:101686008E528F53D3E553941EE552648094805056
:101696000675520075531EC3E55394B0E552648037
:0B16A600948440067552047553B02276
:1018D800E4FF30B1032404FF30B2010F3081020F5E
:0118E8000FF0
:0118E90022DC
:10162900900025E014601314601314601314601300
:1016390014601324057012021701021725021749B5
:1016490002176D0217910217B590F164743FF022E9
:10050500200503200B03E4F569E569600DA20F30B2
:100515000301B350117569058008A20F300301B3BB
:100525005004A203920FE5691470030205EB1470E1
:100535000302070414700302070614700302077808
:100545002404600302091E90F164743FF090F141A8
:10055500E4F090F140F090F145F090F144F090F125
:1005650049F090F148F090F1297415F053D2F75302
:10057500B2FEE4F5DBF5DA200B0302091E3005595E
:10058500200A0302091E900002E0700302091EE41E
:10059500F0D208A3E0C394045031900035E0FEA3E7
:1005A500E0FFC394D0EE94075006C205C20A80321C
:1005B500C3EF9498EE94085004E4F5692290000383
:1005C500E004F0E4900035F0A3F022E4900003F09D
:1005D500900035F0A3F0D20D22E4900035F0A3F0A1
:1005E500C20875690122E490000AF0A3F0900008A2
:1005F500F0A3F0900006F0A3F0900000F0A3F090B7
:100605000017F0A3F0900004F0A3F090002EF0A3E3
:10061500F090002BF0A3F0900030F0A3F0900026AE
:10062500F0A3F0900033F0A3F0F558F557F556F523
:1006350055F543F542F541F540F53FF53EF53DF5F8
:100645003CF53BF53AF539F538F537F536F535F539
:1006550034F533F532F531F530F52FF52EF52DF569
:100665002CF52BF52AF529F528F527F526F525F599
:1006750024900015F0A3F0F563F564F549F54A906B
:1006850000147403F0E4F567F568F54BF54C90003C
:1006950021F09000257403F0754D00754E64755278
:1006A50000755328E490000CF0A3F0900037F0A3F8
:1006B500F0900012F0A3F0900010F0A3F090000E5F
:1006C500F0A3F090001B1204D400000000E4900099
:1006D50029F0A3F0C209C200900022F0C20AC205A7
:1006E500A203920FF560F55FF55EF55DF55CF55BD0
:1006F500F54FF550300604756902227569032280AD
:100705006E90000CE0FEA3E0FF1216861218D8903A
:100715000032EFF0900028F0900032E0300F0590A5
:10072500119F800390119793900025F0121629755B
:10073500481EE4F549F54A90000AF0A3F090000838
:10074500F0A3F0900006F0A3F0900000F0A3F09065
:100755000017F0A3F0900004F0A3F090002EF0A392
:10076500F090002BF0A3F0900030F0A3F0F5467563
:10077500690422900021E0D394F04009E49000350B
:10078500F0A3F0C208E5D220E30B43D20853B2FE32
:10079500E4F5DBF5DA90002DE0C39401500302087F
:1007A5002AE4F0900026E0FEA3E0FF900033E0FC91
:1007B500A3E0FD6F7002EC6E606BD3ED9FEC9E4085
:1007C5002EEF2432FFE43EFED3ED9FEC9E401090C9
:1007D5000027E02432F0900026E03400F0804690B7
:1007E5000027E004F0703E900026E004F08036908B
:1007F5000026E0FEA3E0FFC3ED9FEC9E502790008E
:1008050034E02432FD900033E03400FCD3EF9DEE5C
:100815009C900027E0400424CE800224FFF0900045
:1008250026E034FFF0300E0B53B2FEE4F5DBF5DACB
:100835000208E890001FE07002A3E070030208E8D8
:10084500E490001FF0A3F0E543253FFFE542353E68
:10085500FEE541353DFDE540353CFCEF253BFFEE32
:10086500353AFEED3539FDEC3538FCEF2537FFEE31
:100875003536FEED3535FDEC3534FCEF2533FFEE31
:100885003532FEED3531FDEC3530FCEF252FFFEE31
:10089500352EFEED352DFDEC352CFCEF252BFFEE31
:1008A500352AFEED3529FDEC3528FCEF2527FFEE31
:1008B5003526FEED3525FDEC3524FC78031204A91B
:1008C5008F588E578D568C55AB58AA57A956A85593
:1008D5007F007E5A7D627C02120409900015EEF0BD
:1008E500A3EFF0750CB8750B1E750A0575093E75F5
:1008F500100A750FD7750EA3750D3BE4F514F513A6
:10090500F512F511F5157516DC7F04120B4A9000EA
:0A09150033E0FEA3E0FF1216862275
:03000B00020F16CB
:100F1600C0E0C0F0C083C082C0D075D000C000C0A1
:100F260004C005C006C007C28DC3E5669410E5651A
:100F3600942750080566E56670020565C3900001B2
:100F4600E09410900000E09427500CA3E004F070A9
:100F560006900000E004F0E56924FB605A04600393
:100F66000210821218D8900032EFF0900028E06F3D
:100F76007003021082900032E0FF900028F0300FDC
:100F86000590119F8007900032E090119793900092
:100F960025F01216290554E554D3940740037554D9
:100FA60000AE63AF64E4FCFDE55425E025E02424AF
:100FB600F81204BC021082D3E5689464E5679400D5
:100FC600502E90F164743FF090F141E4F090F140BE
:100FD600F090F145F090F144F090F149F090F1482D
:100FE600F090F1297415F0754B00754C00021082D3
:100FF600900000E0FFC3940A50087561017562F421
:10100600800AEFC394147561037562E8C3E56895B9
:1010160062E56795615056E568249CFFE56734FFF5
:10102600FEEF25E0F54CEE33F54BD3E54C94B0E5F9
:101036004B94044006754B04754CB090F1647438BB
:10104600F0E54BFFFD90F141F0AC4C90F140ECF037
:1010560090F145EDF090F144ECF090F149EFF0900D
:10106600F148E54CF090F1297415F0800F75670092
:10107600756800754B00754C0F756900D007D00672
:10108600D005D004D000D0D0D082D083D0F0D0E02C
:011096003227
:030073000215492A
:10154900C0E0C083C08290F509E4F090F164743F73
:10155900F090F141E4F090F140F090F145F090F114
:1015690044F090F149F090F148F090F1297415F0A8
:1015790090F166E4F090F1267415F0D209756900CE
:07158900D082D083D0E032D4
:03007B0002193136
:0C19310053B2FE75DB0075DA00D20E32F6
:100EBC00C117C113C111C115C116C112C114C11082
:100ECC0041007E0041007D00420075000042007927
:100EDC00000042007B0000410077004100780002D6
:030EEC00170000EC
:1016B1001215F9E490007BF0A3F090007EF0900009
:1016C1007DF0D2AF12190912050590007EE060F499
:0A16D100E4F012091F1214FE80EA73
:03001B000212B618
:1012B600C0E0C083C082C0D0C28F758DF0758B60D0
:1012C60090007EE004F090007DE004F090007CE069
:1012D60004F0700690007BE004F0900002E004F059
:1012E60030081BC3900036E09410900035E0942738
:1012F600500CA3E004F07006900035E004F0E569B8
:1013060024FD601414601B14603F2403704E0550C6
:10131600E5507002054F8044054AE54A70020549CA
:10132600803A90001AE004F090002DE004F090005E
:1013360020E004F0700690001FE004F090007BE4CB
:10134600F0A3F0900078F08013C3E5689488E56711
:10135600941350080568E56870020567D0D0D082FE
:05136600D083D0E0324D
:040EEF0041007F003F
:04001E0075FBAA22A2
:04007600E4F5FB2290
:0B16DB00E4FFFE1218577D057C000F95
:1016E6008DFE8FFC8EFDC2AF0075FF190000000055
:0B16F600000000E5FF20E0FBD2AF2267
:10181F008FFC8EFDC2AF0075FF11000000000000AD
:0D182F0000E5FF20E0FBD2AFAFFE7E0022FF
:101857008FFC8EFDC2AF0075FF1D00000000000069
:0918670000E5FF20E0FBD2AF22F6
:1014A500C2AF12001EE490007FF07F01FE12181FEC
:1014B500EFF0BF05297F027E0012181F900000EE95
:1014C500F0A3EFF07F037E0012181F900000EFF0ED
:1014D5007F047E0012181F900000EFF08015121691
:1014E500DBE4FD0F1216E60F1216E60F1216E60FD5
:0914F5001216E6120076D2AF22B5
:1015C500C2AF12001E1216DB900000E0FCA3E0FD86
:1015D5000F1216E6900000E0FD7C000F1216E69053
:1015E5000000E0FD0F1216E6E0FD0F1216E61200F0
:0415F50076D2AF22D9
:100EF30048006C0000000000000000410074004145
:100F0300006A6441006B00480062000000000000BA
:020F13000000DC
:1011A700E4FDFC900000E004F0E490006CF0A3F094
:1011B700A3F0A3F0A3F0A3F0A3F0A2003390006282
:1011C700F0A20FE433A3F0A200E433A3F0A204E4F7
:1011D70033A3F0A205E433A3F0A217E433A3F0E4AA
:1011E700A3F0A3F090006BE4F0900062E0FE9000A3
:1011F7006BF0900063E025E0FBEE4BFE90006BF098
:10120700900064E025E025E04EFE90006BF0900032
:1012170065E033333354F84EFE90006BF090006670
:10122700E0C454F04EFE90006BF0900067E0C433CA
:1012370054E04EFE90006BF0900068E0C4333354E6
:10124700C04EFE90006BF0A374BCF0A37402F0A331
:10125700EEF0900000E090006FF0900000E090004A
:1012670070F0900000E0B4030AE4F0900000E09012
:101277000000F0900000E0900071F0900000E09016
:101287000072F0E4FF746C2FF582E43400F583E01C
:101297002DFDE43CFC0FBF07EC900073EDF0539875
:0E12A700FE5398FDA37401F090006CE0F599E1
:0112B5002216
:1018B30090006AE0600314F02290006A7464F012EE
:0318C30011A72248
:03002300020026B2
:10002600C0E0C083C082C0D075D000C007E598305C
:10003600E1275398FD900074E0FFC39408501574AF
:100046006C2FF582E43400F583E0F599900074E0B6
:1000560004F08005900074E4F0E59830E0035398CE
:0C006600FED007D0D0D082D083D0E03292
:0D1924008F99E59830E1FB5398FD7F00227C
:0B193D00E59830E0FB5398FEAF9922C4
:101888001203B4FF600C121924740129F9E43AFA1E
:0618980080EEE4FEFF22D9
:10007E0002039FE86480F8E933E83360110460F00E
:10008E00ED33EC337009E8FCE9FDEAFEEBFF2204E8
:10009E0060DED3EB9FEA9EE99DE8C2E78CF0C2F7E3
:1000AE0095F0400CE8CCF8E9CDF9EACEFAEBCFFBAF
:1000BE0012036A85D0F05804700320D5B3E804709B
:1000CE00075002B2D50203A992D5EC0460F7E4CC36
:1000DE00C0E0C398F8603B94186008400DD0E0FB78
:1000EE00020381E4FBFAC9FC8028E830E406E4C987
:1000FE00FBE4CAFCE830E305E4C9CACBFCE85407CC
:10010E006010F8C3E913F9EA13FAEB13FBEC13FCD6
:10011E00D8F130F52FC3E49CFCEF9BFFEE9AFEED79
:10012E0099FDD0E0FBEF4E4D4C701222DB03020323
:10013E00A6EC2CFCEF33FFEE33FEED33FDED30E796
:10014E00EB020381EF2BFFEE3AFEED39FDD0E0FB23
:10015E0050130BBB00030203A9ED13FDEE13FEEFCC
:08016E0013FFEC13FC020381F6
:10017600EC4D6011E8497017ED33EC3304600DE483
:10018600FCFFFEFD22E933E8330470F802039F12F8
:10019600036A58046009E4CC2481500628500902F9
:1001A60003A92840030203A6C0E0EB4A7044B980C5
:1001B60006D0E0FB020395EF4E701CBD8008EBFFF6
:1001C600EAFEE9FD80EBE98DF0A4FEE5F002025FB0
:1001D600E9CDF9EAFEEBFFEF89F0A4FCE5F0CE8964
:1001E600F0A42EFFE435F0CD89F0A42DFEE435F021
:1001F6008067EF4E7005BD80D780C3EF8BF0A4AC4F
:10020600F0EE8BF0A42CFCE435F0F8EF8AF0A42C89
:10021600E5F038FCE433CB8DF0A42CFCE5F03BF89C
:10022600EE8AF0A42CFCE5F038F8E433CF89F0A48C
:100236002CFCE5F038CF3400CE89F0A42FFFE5F092
:100246003EFEE433C98DF0A42EFEE5F039CD8AF0EA
:10025600A42FFFE5F03EFEE43DFD33D0E0FB500762
:100266000BBB000F0203A9EC2CFCEF33FFEE33FEB1
:06027600ED33FD020381DF
:10027C0074F8CC6480CCC86480C8F58204604FC329
:10028C00EB9FF5F0EA9E42F0E99D42F0E89C45F0C8
:10029C00603C501DE5825FFFE582D313CB5BCBF452
:1002AC002B5582FB50280ABA002409B9002008807B
:1002BC001DE5825BFBE582D313CF5FCFF4C3132F15
:1002CC005582FF50090EBE00050DBD00010CC3EB9D
:1002DC009FF5F0EA9E42F0E99D42F0E89C45F06003
:0902EC0007CC4820E701B3EC2225
:1002F50075F020800E75F010800575F0087D007E84
:10030500007F003392D530D50312049BEC334010A7
:10031500EF33FFEE33FEED33FDEC33FCD5F0ED228C
:0E032500E5F0247EA2D513CC92E7CDCEFF22C8
:10033300EDD2E7CD33EC3392D524814006E4FFFEC2
:10034300FDFC22FCE4CFCECDCC24E0501174FF8021
:10035300EDC3CC13CCCD13CDCE13CECF13CF0470BE
:07036300F030D5DE02049B1F
:10036A00E9D2E7C933E833F892D5EDD2E7CD33ECD9
:07037A0033FC5002B2D52252
:10038100EC30E7100FBF000C0EBE00080DBD0004DD
:100391000BEB6014A2D5EB13FCED92E7FD2274FF89
:1003A100FCFDFEFF22E480F8A2D574FF13FC7D80E2
:0303B100E480EFF6
:03000000021419CE
:0C141900787FE4F6D8FD7581690214604C
:1003B400BB010689828A83E0225002E722BBFE0247
:0903C400E32289828A83E493227A
:1003CD0075F008758200EF2FFFEE33FECD33CDCCE7
:1003DD0033CCC58233C5829BED9AEC99E58298406A
:1003ED000CF582EE9BFEED9AFDEC99FC0FD5F0D647
:1003FD00E4CEFBE4CDFAE4CCF9A88222B800C1B971
:10040D000059BA002DEC8BF084CFCECDFCE5F0CBAE
:10041D00F97818EF2FFFEE33FEED33FDEC33FCEBE7
:10042D0033FB10D703994004EB99FB0FD8E5E4F9A2
:10043D00FA227818EF2FFFEE33FEED33FDEC33FC8F
:10044D00C933C910D7059BE99A4007EC9BFCE99A83
:10045D00F90FD8E0E4C9FAE4CCFB2275F010EF2FC8
:10046D00FFEE33FEED33FDCC33CCC833C810D707C8
:10047D009BEC9AE899400AED9BFDEC9AFCE899F803
:0E048D000FD5F0DAE4CDFBE4CCFAE4C8F92296
:0E049B00C3E49FFFE49EFEE49DFDE49CFC2272
:1004A900E8600FECC313FCED13FDEE13FEEF13FF31
:0304B900D8F12255
:0C04BC00ECF608EDF608EEF608EFF6226C
:0C04C800ECF0A3EDF0A3EEF0A3EFF022A7
:1004D400A8828583F0D083D0821204EB1204EB123D
:1004E40004EB1204EBE473E493A3C583C5F0C58362
:1004F400C8C582C8F0A3C583C5F0C583C8C582C872
:0105040022D4
:101425000216B1E493A3F8E493A34003F68001F216
:1014350008DFF48029E493A3F85407240CC8C333C8
:10144500C4540F4420C8834004F456800146F6DF97
:10145500E4800B0102040810204080900D31E47EE9
:10146500019360BCA3FF543F30E509541FFEE4938C
:10147500A360010ECF54C025E060A840B8E493A353
:10148500FAE493A3F8E493A3C8C582C8CAC583CA7E
:10149500F0A3C8C582C8CAC583CADFE9DEE780BE36
:010F150000DB
:00000001FF
