:030000000201BE3C
:10000B00020A5F8E088F098C0A8D0B8B0C8A0D8967
:10001B000EE509250BF511E508350AF510E509255F
:10002B000BFFE508350AFE7C017D901202E38E1270
:10003B008F13751400751501C3E5159513E512643F
:10004B0080F8E51464809840030200F8751600757B
:10005B001700AF0F7E00C3E5179FEE6480F8E5161F
:10006B006480985024E51725E0FFE51633FEAB0CB2
:10007B00AA0DA90E8F828E83E475F000120338054A
:10008B0017E5177002051680C9AE08AF097C017D14
:10009B00901202E3120A8E751600751700AF0F7ED1
:1000AB0000C3E5179FEE6480F8E516648098502432
:1000BB00E51725E0FFE51633FEAB0CAA0DA90E8F55
:1000CB00828E83E475F0011203380517E517700271
:1000DB00051680C9AE0AAF0B7C017D901202E312AC
:1000EB000A8E0515E515700205140200432243180C
:1000FB0001C2A5C296C2937F3C7E001209EBEF6052
:10010B00030201BDD296D2A3C293C2A2C2A57F3C69
:10011B007E001209EBEF60030201BDD293D296D29F
:10012B00A3C295C2A2C2A57F3C7E001209EBEF6071
:10013B00030201BDD2A5C295C2A4C2A27F3C7E0020
:10014B001209EBEF706CD2A2D2A5C295C297C2A4D2
:10015B007F3C7E001209EBEF7058D295D2A2D2A54C
:10016B00C294C297C2A47F3C7E001209EBEF70428F
:10017B00D2A4C294C297C2A37F3C7E001209EBEFBC
:10018B007030D297D2A4C294C296C2A37F3C7E0099
:10019B001209EBEF701CD294D297D2A4C293C297E0
:1001AB00C2A37F3C7E001209EBEF6006D293D2977D
:1001BB00D2A32278FFE4F6D8FD9000007FFF7E02E9
:1001CB00E4F0A3DFFCDEFA75817002021302099CD6
:1001DB00E493A3F8E493A34003F68001F208DFF461
:1001EB008029E493A3F85407240CC8C333C4540FD9
:1001FB004420C8834004F456800146F6DFE4800BAC
:10020B000102040810204080900A77E47E0193607D
:10021B00BCA3FF543F30E509541FFEE493A36001D8
:10022B000ECF54C025E060A840B8E493A3FAE49342
:10023B00A3F8E493A3C8C582C8CAC583CAF0A3C8F0
:10024B00C582C8CAC583CADFE9DEE780BE8E558F7B
:10025B00568C578D58E5562558F55AE5553557F5B3
:10026B0059E5562558FFE5553557FE7C017D901213
:10027B0002E38E5B8F5C755D00755E01C3E55E9579
:10028B005CE55B6480F8E55D648098504AC2A4C26B
:10029B0097C294C2A5C2A2C295C293C296C2A3AE84
:1002AB0055AF567C017D901202E3120A8ED2A4D276
:1002BB0097D294D2A5D2A2D295D293D296D2A3AEF4
:1002CB0057AF587C017D901202E3120A8E055EE552
:1002DB005E7002055D80A522BC000BBE0029EF8D70
:1002EB00F084FFADF022E4CCF875F008EF2FFFEEB1
:1002FB0033FEEC33FCEE9DEC984005FCEE9DFE0FBF
:10030B00D5F0E9E4CEFD22EDF8F5F0EE8420D21C19
:10031B00FEADF075F008EF2FFFED33FD4007985061
:10032B0006D5F0F222C398FD0FD5F0EA22F8BB01F7
:10033B0011E58229F582E5833AF583E8F0E5F0A330
:10034B00F0225009E92582C8F608A6F022BBFE0967
:10035B00E92582C8F2E5F008F2228E418F428C43E8
:10036B008D44E5422544F546E5413543F545E542E7
:10037B002544FFE5413543FE7C017D901202E38E5F
:10038B00478F48754900754A01C3E54A9548E547CB
:10039B006480F8E549648098503EC2A3C296C2932C
:1003AB00C2A5C2A2C295AE41AF427C017D901202A2
:1003BB00E3120A8ED2A3D296D293D2A5D2A2D29511
:1003CB00AE43AF447C017D901202E3120A8E054AC4
:1003DB00E54A7002054980B1228E4B8F4C8C4D8DB6
:1003EB004EE54C254EF550E54B354DF54FE54C257F
:1003FB004EFFE54B354DFE7C017D901202E38E5195
:10040B008F52755300755401C3E5549552E55164F1
:10041B0080F8E553648098503EC2A4C297C294C240
:10042B00A5C2A2C295AE4BAF4C7C017D901202E3EC
:10043B00120A8ED2A4D297D294D2A5D2A2D295AEC2
:10044B004DAF4E7C017D901202E3120A8E0554E5EE
:10045B00547002055380B1228E5F8F608C618D6268
:10046B00E5602562F564E55F3561F563E56025625E
:10047B00FFE55F3561FE7C017D901202E38E658F97
:10048B0066756700756801C3E5689566E565648008
:10049B00F8E567648098503EC2A4C297C294C29399
:1004AB00C296C2A3AE5FAF607C017D901202E312D5
:1004BB000A8ED2A4D297D294D293D296D2A3AE6103
:1004CB00AF627C017D901202E3120A8E0568E5682B
:1004DB007002056780B1228E238F248C258D26E533
:1004EB00242526F528E5233525F527E5242526FFA4
:1004FB00E5233525FE7C017D901202E38E298F2AA0
:10050B00752B00752C01C3E52C952AE5296480F821
:10051B00E52B6480985032C2A3C296C293AE23AF30
:10052B00247C017D901202E3120A8ED2A3D296D2C2
:10053B0093AE25AF267C017D901202E3120A8E0545
:10054B002CE52C7002052B80BD228E2D8F2E8C2F2F
:10055B008D30E52E2530F532E52D352FF531E52E95
:10056B002530FFE52D352FFE7C017D901202E38EA9
:10057B00338F34753500753601C3E5369534E53365
:10058B006480F8E5356480985032C2A5C2A2C2954A
:10059B00AE2DAF2E7C017D901202E3120A8ED2A5F6
:1005AB00D2A2D295AE2FAF307C017D901202E31216
:1005BB000A8E0536E5367002053580BD228E378FE3
:1005CB00388C398D3AE538253AF53CE5373539F530
:1005DB003BE538253AFFE5373539FE7C017D901236
:1005EB0002E38E3D8F3E753F00754001C3E540959C
:1005FB003EE53D6480F8E53F6480985032C2A4C26A
:10060B0097C294AE37AF387C017D901202E3120A89
:10061B008ED2A4D297D294AE39AF3A7C017D901290
:10062B0002E3120A8E0540E5407002053F80BD22B1
:10063B00751971751AC7E51820E02D74B0251AF5D8
:10064B001A74FF3519F519C374C7951AFF74719590
:10065B0019FEAD1AAC191204E2C3E51A9450E51950
:10066B00940050D2800280CE751971751AC7E518A7
:10067B0020E02C74B0251AF51A74FF3519F519C33F
:10068B0074C7951AFD74719519FCAF1AAE19120443
:10069B00E2C3E51A9450E519940050D22280CF2280
:1006AB00751971751AC7E51820E02D74B0251AF568
:1006BB001A74FF3519F519C374C7951AFF74719520
:1006CB0019FEAD1AAC19120555C3E51A9450E5196C
:1006DB00940050D2800280CE751971751AC7E51837
:1006EB0020E02C74B0251AF51A74FF3519F519C3CF
:1006FB0074C7951AFD74719519FCAF1AAE191205D2
:10070B0055C3E51A9450E519940050D22280CF229C
:10071B00751971751AC7E51820E02D74B0251AF5F7
:10072B001A74FF3519F519C374C7951AFF747195AF
:10073B0019FEAD1AAC191205C8C3E51A9450E51988
:10074B00940050D2800280CE751971751AC7E518C6
:10075B0020E02C74B0251AF51A74FF3519F519C35E
:10076B0074C7951AFD74719519FCAF1AAE19120561
:10077B00C8C3E51A9450E519940050D22280CF22B9
:10078B00751971751AC7E51820E02D74B0251AF587
:10079B001A74FF3519F519C374C7951AFF7471953F
:1007AB0019FEAD1AAC19120365C3E51A9450E5197D
:1007BB00940050D2800280CE751971751AC7E51856
:1007CB0020E02C74B0251AF51A74FF3519F519C3EE
:1007DB0074C7951AFD74719519FCAF1AAE191203F3
:1007EB0065C3E51A9450E519940050D22280CF22AC
:1007FB00751971751AC7E51820E02D74B0251AF517
:10080B001A74FF3519F519C374C7951AFF747195CE
:10081B0019FEAD1AAC191203E4C3E51A9450E5198D
:10082B00940050D2800280CE751971751AC7E518E5
:10083B0020E02C74B0251AF51A74FF3519F519C37D
:10084B0074C7951AFD74719519FCAF1AAE19120382
:10085B00E4C3E51A9450E519940050D22280CF22BC
:10086B00751971751AC7E51820E02D74B0251AF5A6
:10087B001A74FF3519F519C374C7951AFF7471955E
:10088B0019FEAD1AAC19120258C3E51A9450E519AA
:10089B00940050D2800280CE751971751AC7E51875
:1008AB0020E02C74B0251AF51A74FF3519F519C30D
:1008BB0074C7951AFD74719519FCAF1AAE19120213
:1008CB0058C3E51A9450E519940050D22280CF22D8
:1008DB00751971751AC7E51820E02D74B0251AF536
:1008EB001A74FF3519F519C374C7951AFF747195EE
:1008FB0019FEAD1AAC19120463C3E51A9450E5192D
:10090B00940050D2800280CE751971751AC7E51804
:10091B0020E02C74B0251AF51A74FF3519F519C39C
:10092B0074C7951AFD74719519FCAF1AAE191204A0
:10093B0063C3E51A9450E519940050D22280CF225C
:10094B0043A23C90F02A743CF0A3E4F043A1F8904E
:10095B00F01A74F8F0A3E4F053A2BF90F02AE0442D
:10096B0040F0A3E054BFF0439A1090F00A7430F0BB
:10097B00A3E4F090F005F0D294D297D2A4D295D202
:10098B00A2D2A5D293D296D2A3D285D2845318FEEB
:10099B00227596AA75965575970112094B120AB7CF
:1009AB00120AC77596AA759655759701E51B60F3E4
:1009BB0012063BE51B60EC1208DBE51B60E512063B
:1009CB00ABE51B60DE12071BE51B60D712078BE53F
:1009DB001B60D01207FBE51B60C912086B80C42299
:1009EB008E698F6AE56A156AAE6970021569FFEF49
:1009FB004E602D7596AA759655759701756B00759A
:100A0B006C00C3E56C94B3E56B9403500A056CE57D
:100A1B006C7002056B80EBE51B70C97F012280C4F3
:100A2B007F002220A6270520E5207002051F20A6A7
:100A3B0015C3E520942CE51F9401400A751F007522
:100A4B00200043180122751F0075200022751F001E
:100A5B0075200022758CF0758A5F30850B751B0035
:100A6B00751900751A008003751B0132011C0002F9
:100A7B00190000021D000002210000021F000001EE
:100A8B001B00008E6F8F70E570456F600AE5701567
:100A9B00707002156F80F0228E6D8F6EE56E156E85
:100AAB00AE6D7002156DFFEF4E70F122438901435D
:100ABB008E08758CF0758A5F7588102275A8027583
:050ACB00B800D2AF22CB
:00000001FF
