:030000000200D328
:10000B000206D8430801C2A5C296C2937F3C7E006C
:10001B001204CEEF60030200D2D296D2A3C293C2D7
:10002B00A2C2A57F3C7E001204CEEF60030200D279
:10003B00D293D296D2A3C295C2A2C2A57F3C7E0018
:10004B001204CEEF60030200D2D2A5C295C2A4C2A5
:10005B00A27F3C7E001204CEEF706CD2A2D2A5C25E
:10006B0095C297C2A47F3C7E001204CEEF7058D28B
:10007B0095D2A2D2A5C294C297C2A47F3C7E001295
:10008B0004CEEF7042D2A4C294C297C2A37F3C7E2F
:10009B00001204CEEF7030D297D2A4C294C296C293
:1000AB00A37F3C7E001204CEEF701CD294D297D269
:1000BB00A4C293C297C2A37F3C7E001204CEEF6012
:1000CB0006D293D297D2A32278FFE4F6D8FD900004
:1000DB00007FFF7E02E4F0A3DFFCDEFA75813602BF
:1000EB00012802060AE493A3F8E493A34003F680E5
:1000FB0001F208DFF48029E493A3F85407240CC819
:10010B00C333C4540F4420C8834004F456800146C3
:10011B00F6DFE4800B010204081020408090069863
:10012B00E47E019360BCA3FF543F30E509541FFEEE
:10013B00E493A360010ECF54C025E060A840B8E45F
:10014B0093A3FAE493A3F8E493A3C8C582C8CAC5E2
:10015B0083CAF0A3C8C582C8CAC583CADFE9DEE774
:10016B0080BE750971750AC7E50820E02D74B025AE
:10017B000AF50A74FF3509F509C374C7950AFF74AC
:10018B00719509FEAD0AAC0912062FC3E50A94500E
:10019B00E509940050D2800280CE750971750AC7AB
:1001AB00E50820E02C74B0250AF50A74FF3509F533
:1001BB0009C374C7950AFD74719509FCAF0AAE09A2
:1001CB0012062FC3E50A9450E509940050D2228001
:1001DB00CF22750971750AC7E50820E02D74B0258B
:1001EB000AF50A74FF3509F509C374C7950AFF743C
:1001FB00719509FEAD0AAC09120652C3E50A94507B
:10020B00E509940050D2800280CE750971750AC73A
:10021B00E50820E02C74B0250AF50A74FF3509F5C2
:10022B0009C374C7950AFD74719509FCAF0AAE0931
:10023B00120652C3E50A9450E509940050D222806D
:10024B00CF22750971750AC7E50820E02D74B0251A
:10025B000AF50A74FF3509F509C374C7950AFF74CB
:10026B00719509FEAD0AAC09120675C3E50A9450E7
:10027B00E509940050D2800280CE750971750AC7CA
:10028B00E50820E02C74B0250AF50A74FF3509F552
:10029B0009C374C7950AFD74719509FCAF0AAE09C1
:1002AB00120675C3E50A9450E509940050D22280DA
:1002BB00CF22750971750AC7E50820E02D74B025AA
:1002CB000AF50A74FF3509F509C374C7950AFF745B
:1002DB00719509FEAD0AAC0912057DC3E50A945070
:1002EB00E509940050D2800280CE750971750AC75A
:1002FB00E50820E02C74B0250AF50A74FF3509F5E2
:10030B0009C374C7950AFD74719509FCAF0AAE0950
:10031B0012057DC3E50A9450E509940050D2228062
:10032B00CF22750971750AC7E50820E02D74B02539
:10033B000AF50A74FF3509F509C374C7950AFF74EA
:10034B00719509FEAD0AAC091205ACC3E50A9450D0
:10035B00E509940050D2800280CE750971750AC7E9
:10036B00E50820E02C74B0250AF50A74FF3509F571
:10037B0009C374C7950AFD74719509FCAF0AAE09E0
:10038B001205ACC3E50A9450E509940050D22280C3
:10039B00CF22750971750AC7E50820E02D74B025C9
:1003AB000AF50A74FF3509F509C374C7950AFF747A
:1003BB00719509FEAD0AAC09120511C3E50A9450FB
:1003CB00E509940050D2800280CE750971750AC779
:1003DB00E50820E02C74B0250AF50A74FF3509F501
:1003EB0009C374C7950AFD74719509FCAF0AAE0970
:1003FB00120511C3E50A9450E509940050D22280EE
:10040B00CF22750971750AC7E50820E02D74B02558
:10041B000AF50A74FF3509F509C374C7950AFF7409
:10042B00719509FEAD0AAC091205DBC3E50A9450C0
:10043B00E509940050D2800280CE750971750AC708
:10044B00E50820E02C74B0250AF50A74FF3509F590
:10045B0009C374C7950AFD74719509FCAF0AAE09FF
:10046B001205DBC3E50A9450E509940050D22280B3
:10047B00CF2243A23C90F02A743CF0A3E4F043A1BA
:10048B00F890F01A74F8F0A3E4F053A2BF90F02A9E
:10049B00E04440F0A3E054BFF0439A1090F00A748C
:1004AB0030F0A3E4F090F005F0D294D297D2A4D21E
:1004BB0095D2A2D2A5D293D296D2A3D285D284536F
:1004CB0008FE228E138F14E5141514AE137002154B
:1004DB0013FFEF4E602D7596AA759655759701759E
:1004EB001500751600C3E51694B3E5159403500A71
:1004FB000516E5167002051580EBE50B70C97F013B
:10050B002280C47F00228E2B8F2C8C2D8D2EC2A48B
:10051B00C297C294C2A5C2A2C295C293C296C2A3ED
:10052B00AF2CAE2B1206AFD2A4D297D294D2A5D2B7
:10053B00A2D295D293D296D2A3AF2EAE2D1206AFE6
:10054B002220A6270510E5107002050F20A615C363
:10055B00E510942CE50F9401400A750F00751000FF
:10056B0043080122750F0075100022750F007510DE
:10057B0000228E238F248C258D26C2A3C296C29374
:10058B00C2A5C2A2C295AF24AE231206AFD2A3D28C
:10059B0096D293D2A5D2A2D295AF26AE251206AF94
:1005AB00228E278F288C298D2AC2A4C297C294C26F
:1005BB00A5C2A2C295AF28AE271206AFD2A4D2977E
:1005CB00D294D2A5D2A2D295AF2AAE291206AF22CF
:1005DB008E2F8F308C318D32C2A4C297C294C293AE
:1005EB00C296C2A3AF30AE2F1206AFD2A4D297D20F
:1005FB0094D293D296D2A3AF32AE311206AF2275FC
:10060B0096AA75965575970112047D1206EA120685
:10061B00FA7596AA759655759701E50B60F312005E
:10062B000E80EE228E178F188C198D1AC2A3C296CC
:10063B00C293AF18AE171206AFD2A3D296D293AF16
:10064B001AAE191206AF228E1B8F1C8C1D8D1EC26B
:10065B00A5C2A2C295AF1CAE1B1206AFD2A5D2A2E9
:10066B00D295AF1EAE1D1206AF228E1F8F208C218E
:10067B008D22C2A4C297C294AF20AE1F1206AFD276
:10068B00A4D297D294AF22AE211206AF22010C0056
:10069B0002090000020D000002110000020F000011
:1006AB00010B00008E358F36E5364535600AE53691
:1006BB0015367002153580F0228E338F34E53415E4
:1006CB0034AE3370021533FFEF4E70F122758CF0A0
:1006DB00758A5F308505750B008003750B013243FE
:1006EB008901438E08758CF0758A5F7588102275A9
:0806FB00A80275B800D2AF227D
:00000001FF
