:020000040800F2
:10000000800C0020E1010008B50D0008FD0C00087F
:10001000B10D00089D070008EB1F0008000000005C
:10002000000000000000000000000000490100087E
:10003000B1090008000000008D0100087D130008D0
:10004000FB010008FB010008FB010008FB010008A0
:10005000FB010008FB010008FB010008FB01000890
:10006000FB010008FB010008FB010008FB01000880
:10007000FB010008FB010008FB010008FB01000870
:10008000FB010008FB010008FB010008FB01000860
:10009000FB010008FB010008FB010008FB01000850
:1000A000FB010008FB010008FB010008FB01000840
:1000B00059150008D5150008D9160008FB010008DD
:1000C000FB010008FB010008FB010008FB01000820
:1000D000FB010008E51C0008FB010008FB0100080B
:1000E000FB010008FB010008FB010008FB01000800
:1000F000FB010008FB010008FB010008FB010008F0
:10010000FB010008FB010008FB010008FB010008DF
:10011000FB010008FB010008FB010008FB010008CF
:10012000FB010008FB010008FB010008FB010008BF
:10013000DFF810D000F082F900480047FD230008E6
:10014000AFF30080800C0020224B19680868B0E8EB
:10015000F00F80F30988BFF36F8F4FF0000080F33A
:1001600011884EF00D0E7047000000000648006830
:10017000006880F3088862B661B6BFF34F8FBFF3A3
:100180006F8F00DF00BF00BF08ED00E0EFF30980D4
:10019000BFF36F8F0F4B1A6820E9F00F106008B59E
:1001A0004FF0500080F31188BFF34F8FBFF36F8F74
:1001B00002F0B0F94FF0000080F31188BDE808406C
:1001C00019680868B0E8F00F80F30988BFF36F8FF3
:1001D000704700BF80040020EFF3058070470000E7
:1001E0000648804706480047FEE7FEE7FEE7FEE7D1
:1001F000FEE7FEE7FEE7FEE7FEE7FEE7E91300089D
:10020000310100082DE9FE4F81EA030404F00044A7
:1002100021F0004100944FF0000B23F0004350EA1E
:1002200001045ED052EA03045BD0C3F30A54C1F365
:100230000A552C44A4F2F3340194A0FB0254C1F3F8
:10024000130141F48011C3F3130343F4801301FB42
:10025000024400FB034E840A970A44EA815447EAA9
:100260008357A4FB076802958D0A05FB07854FEAB3
:10027000932C04FB0C542705029D4FEA065847EACD
:100280001637B5EB08056EEB070C870E920E47EAA2
:10029000811742EA8312A7FB0201B6EB0B0164EB64
:1002A00000042B0D43EA0C335E1844EB1C50DA4675
:1002B0005146E7FB0201C5F313044FEA0B3343EA4F
:1002C00014534FEA0432019C43EA0603A4F10C04E0
:1002D0000294009CCDE900B400F061F803B0BDE8E1
:1002E000F08F00200146F9E70EB540F2334102914C
:1002F0000021CDE900110A460B4600F050F803B08A
:1003000000BDC1F30A5210B5C1F3130140F2FF332F
:1003100041F480119A4201DA002010BD40F23343CB
:100320009A42A2F2334203DC524200F019F810BDA7
:10033000904010BD30B50B4601460020202201241C
:1003400009E021FA02F59D4205D303FA02F5491BA3
:1003500004FA02F52844151EA2F10102F1DC30BDB9
:10036000202A04DB203A21FA02F00021704721FA0A
:1003700002F3D040C2F12002914008431946704771
:1003800010B5141E73F1000408DA401C41F100019D
:1003900092185B411A4301D120F0010010BD2DE9F4
:1003A000F04D92469B4611B1B1FA81F202E0B0FAEB
:1003B00080F22032904600F053F804460F4640EA9F
:1003C0000A0041EA0B0153465A46084313D011462E
:1003D00053EA010019D0C8F140025046FFF7C0FFB0
:1003E00005460E4650465946424600F039F8084345
:1003F00005D0012004E020463946BDE8F08D0020FC
:10040000054346EAE0762C4337430A986305E40A3D
:10041000A0EB08000022FD0A44EA47540A3002D546
:1004200000200146E9E7010510196941DDE90845A9
:1004300000196941BDE8F04DA2E70000064C074DE8
:1004400006E0E06840F0010394E8070098471034A4
:10045000AC42F6D3FFF770FE702700089027000823
:10046000202A04DB203A00FA02F100207047914074
:10047000C2F1200320FA03F319439040704770B58E
:100480008C1810F8015B15F0070301D110F8013B3F
:100490002A1106D110F8012B03E010F8016B01F8C6
:1004A000016B5B1EF9D12B0705D40023521E0DD41E
:1004B00001F8013BFAE710F8013BCB1A921C03E06C
:1004C00013F8015B01F8015B521EF9D5A142D8D3A4
:1004D000002070BD21B1826842F00102826003E019
:1004E000826822F001028260704721B1826842F482
:1004F0008072826003E0826822F4807282607047BA
:10050000014600208A6802F004020AB1012000E0DE
:1005100000207047014600208A6802F008020AB1F4
:10052000012000E00020704730B502460020002383
:1005300050680F4C20400D790C6844EA0524204394
:10054000506090680B4C2040D1E902542C434D7907
:1005500044EA450420439060D06A20F470000C7C8B
:10056000641EE4B2234340EA0350D06230BD000071
:10057000FFFEF0FFFDF7F1FFF0B504460D46002049
:100580000021092D11DDE068A5F10A0606EB4607FA
:10059000072606FA07F18843A5F10A0606EB460688
:1005A00003FA06F10843E0600CE0206905EB45071B
:1005B000072606FA07F1884305EB450603FA06F11C
:1005C00008432061072A0FDA606B561E06EB860788
:1005D0001F2606FA07F18843561E06EB860605FA23
:1005E00006F10843606322E00D2A0FDA206BD61F64
:1005F00006EB86071F2606FA07F18843D61F06EB8F
:10060000860605FA06F10843206310E0E06AA2F1CD
:100610000D0606EB86071F2606FA07F18843A2F1AE
:100620000D0606EB860605FA06F10843E062F0BD0A
:10063000816841F008018160704721B1826842F40D
:10064000A002826003E0826822F4A0028260704708
:10065000816841F0040181607047000008B5002006
:1006600000900121042000F0F9FC8C20ADF800007E
:1006700000208DF803006946014800F09AF908BD92
:100680000008014010B5FFF7E9FF00F001F810BDC8
:1006900000B591B00121084600F0B0FC01214802EC
:1006A00000F0DCFC3A4800F0BFF83A4806903A48BF
:1006B0000790002008900320099000200A908020D5
:1006C0000B9040000C9080000D9020200E900002B6
:1006D0000F900020109006A92D4800F04BF9012141
:1006E0002B4800F095F80020019001208DF80800BB
:1006F0008DF809004FF4602003900020049003203F
:100700008DF8140001A923484C38FFF70DFF4FF472
:10071000404000F067FC0523022203211D484C38AD
:10072000FFF72AFF0523012202211A484C38FFF760
:1007300023FF05230322072116484C38FFF71CFF2F
:10074000012114484C38FFF7D0FE012111484C38E4
:10075000FFF7C0FE0F484C38FFF76AFF00BF0D4897
:100760004C38FFF7D7FE0028F9D10A484C38FFF77C
:100770006FFF00BF07484C38FFF7C2FE0028F9D1D1
:10078000012104484C38FFF758FF11B000BD0000AC
:10079000080002404C2401405C04002000BFFEE73A
:1007A00010B500F051FE0020054908600549C1F868
:1007B000B80103490831086000F002FC10BD0000D8
:1007C000B48121420080214210B5104800780628EB
:1007D00016D2DFE800F00306090C0F1201F044FA0C
:1007E00011E001F061FA0EE001F020FC0BE001F0F5
:1007F000FFFB08E001F082FC05E001F09DFC02E057
:10080000FFF7CEFF00BF00BF10BD00005304002063
:1008100021B1026842F00102026004E002684FF672
:10082000FE731A400260704701684FF6FE72114075
:1008300001600021016041608160C1604B498842D4
:1008400008D14A490839496841F00F01474A083A36
:1008500051608AE045491431884208D1434908393A
:10086000496841F0F001414A083A51607DE03F4952
:100870002831884208D13D490839496841F47061FE
:100880003A4A083A516070E038493C31884208D110
:1008900036490839496841F47041344A083A516090
:1008A00063E032495031884208D1304908394968FB
:1008B00041F470212D4A083A516056E02B496431C9
:1008C000884208D129490839496841F47001274A0A
:1008D000083A516049E025497831884208D12349D6
:1008E0000839496841F07061204A083A51603CE09B
:1008F0001F49884206D1011F096841F00F01021FFC
:10090000116032E01A491431884208D11849091F90
:10091000096841F0F001164A121F116025E01449E0
:100920002831884208D11249091F096841F47061D1
:100930000F4A121F116018E00D493C31884208D15E
:100940000B49091F096841F47041094A121F1160DF
:100950000BE007495031884207D10549091F096852
:1009600041F47021024A121F1160704708000240D2
:100970000804024010B50022026847F6F0739A435B
:100980000C6A8B6823430C6923434C6923438C69AD
:100990002343CC6923434C6A23438C6A23431A4381
:1009A0000260CB6843600B6883604B68C36010BD16
:1009B00070472DE9F0410246002500260020002363
:1009C0000024002791F803C00CF00F0591F803C034
:1009D0000CF0100CBCF1000F03D091F802C04CEAEF
:1009E000050591F800C0BCF1000F31D0146800205B
:1009F0002BE04FF0010C0CFA00F3B1F800C00CEA48
:100A000003069E4220D183004FF00F0C0CFA03F72F
:100A1000BC4305FA03FC4CEA040491F803C0BCF1A2
:100A2000280F06D14FF0010C0CFA00FCC2F814C0DC
:100A30000AE091F803C0BCF1480F05D14FF0010C5A
:100A40000CFA00FCC2F810C0401C0828D1D3146076
:100A5000B1F800C0BCF1FF0F34DD546800202EE077
:100A600000F1080C4FF0010808FA0CF3B1F800C0CF
:100A70000CEA03069E4221D183004FF00F0C0CFAC2
:100A800003F7BC4305FA03FC4CEA040491F803C0E5
:100A9000BCF1280F05D100F1080C08FA0CF8C2F8D7
:100AA000148091F803C0BCF1480F07D100F1080C85
:100AB0004FF0010808FA0CF8C2F81080401C082812
:100AC000CED35460BDE8F081F0B50A46002300247F
:100AD0000021002500F00046B6F1004F02D11D4E66
:100AE000F16901E01B4E7168C0F3034583B200F465
:100AF0004016B6F5401F08D121F07061154E76689A
:100B000026F07066134F7E6012E000F48016B6F592
:100B1000801F06D1032606FA05F4A14341F0706157
:100B200006E0460D360103FA06F6B14341F0706166
:100B300022B1460D360103FA06F6314300F00046B5
:100B4000B6F1004F02D1034EF16101E0014E716038
:100B5000F0BD000000000140416170470161704735
:100B600010B500F005FB2449087024480078097886
:100B7000884235D0224800F0EFFE2249224A1278FE
:100B800021F8120020480078401C1F4908700021FD
:100B90001B4801F014F81C480078062802DB0020EE
:100BA00019490870144800781449087017480078EB
:100BB000042811D11648007830B116480E4909783A
:100BC000405C1549087005E014480B490978405C01
:100BD00011490870FFF7F8FD0020114908700AE07C
:100BE0000A480078042803D101200D49087002E06A
:100BF00000200B49087010BD520400205104002051
:100C000000040040C00400205B0400204E040020CB
:100C10004F04002044040020530400203C04002022
:100C2000560400201B480078401C1A4908701A48D6
:100C300000881A49098808441849088016484088DD
:100C400017490988084416490880134880881549BF
:100C500009880844134908800E480078082818DBE2
:100C600000200C4908700D480088C0100E4908800B
:100C70000B480088C0100D4908800A480088C01041
:100C80000B4908800020054908800549088005496E
:100C900008807047760400205C040020680400206F
:100CA000620400206E0400206A0400206404002016
:100CB0007004002008B50121042000F0CFF90121C3
:100CC000082000F0CBF904208DF803004FF4C05049
:100CD000ADF8000069460748FFF76BFE04208DF869
:100CE00003004FF48850ADF8000069460248FFF752
:100CF00060FE08BD00080140000C014000BFFEE797
:100D000010B54FF480610948FFF728FF4FF40061E8
:100D10000648FFF723FF4FF400610448FFF71CFF6C
:100D20004FF480610148FFF717FF10BD000C014030
:100D300010B54FF480610948FFF70EFF4FF40061D2
:100D40000648FFF709FF4FF400610448FFF706FF6C
:100D50004FF480610148FFF701FF10BD000C014016
:100D600008B50121042000F079F90121082000F0E4
:100D700075F910208DF8030003208DF80200022081
:100D8000ADF8000069460848FFF713FE10208DF803
:100D9000030001208DF80200ADF800006946034809
:100DA000FFF707FE08BD000000080140000C0140ED
:100DB00000BFFEE77047000070B5002100230F223E
:100DC000C47804B3154C246804F4E064C4F5E0640A
:100DD000210AC1F10403CA40447804FA03F184787B
:100DE0001440214309010E4C0678A155047804F003
:100DF0001F050124AC4005786D11AD0005F1E0251B
:100E0000C5F8004109E0047804F01F050124AC4056
:100E1000044D0678761145F8264070BD0CED00E0D3
:100E200000E400E080E100E070B5002418E004F187
:100E3000B000002100F0A4F80021022000F0A0F88A
:100E40000021102000F09CF8002505E00121002081
:100E500000F096F8681CC5B2802DF7DB601CC4B2A8
:100E6000082CE4DB70BD000008B50121082000F06B
:100E7000F5F84FF44060ADF8000010208DF8030045
:100E800003208DF8020069463C48FFF792FD4FF4BD
:100E900040613A48FFF762FE0021AE2000F070F892
:100EA0000021022000F06CF80021102000F068F80A
:100EB0000021402000F064F80021B02000F060F82C
:100EC0000021812000F05CF80021FF2000F058F89C
:100ED0000021A12000F054F80021A62000F050F8D5
:100EE0000021A82000F04CF800213F2000F048F835
:100EF0000021AD2000F044F800218B2000F040F8E4
:100F00000021332000F03CF80021C82000F038F820
:100F10000021D32000F034F80021084600F030F81A
:100F20000021D52000F02CF80021802000F028F8C6
:100F30000021D82000F024F80021052000F020F83E
:100F40000021D92000F01CF800211F2000F018F823
:100F50000021DA2000F014F80021122000F010F82F
:100F60000021DB2000F00CF80021402000F008F800
:100F70000021AF2000F004F808BD0000000C014083
:100F800070B504460D466DB1FFF7BAFE782001F04A
:100F9000F3F8402001F0F0F8E0B201F0EDF8FFF7CF
:100FA000C7FE0CE0FFF7ACFE782001F0E5F800206A
:100FB00001F0E2F8E0B201F0DFF8FFF7B9FE70BD32
:100FC00010B504462146064800F0F3FD21460448CA
:100FD00000F0F1FD2146024800F0EFFD10BD0000D9
:100FE000002C014001460020034A506820F4404094
:100FF00008435060704700000010024029B1064AC3
:1010000052690243044B5A6104E0034A5269824325
:10101000014B5A61704700000010024029B1064A96
:10102000D2690243044BDA6104E0034AD269824385
:10103000014BDA61704700000010024029B1064AF6
:1010400012690243044B1A6104E0034A12698243A5
:10105000014B1A61704700000010024029B1064A96
:1010600092690243044B9A6104E0034A9269824305
:10107000014B9A61704700000010024029B1064AF6
:10108000D2680243044BDA6004E0034AD268824328
:10109000014BDA60704700000010024030B50021BB
:1010A0000022002400232D4D6D6805F00C0121B1B4
:1010B000042905D0082923D105E0294D056022E047
:1010C000274D05601FE0254D6D6805F47012234D16
:1010D0006D6805F48034022505EB92421CB9214D60
:1010E000554305600BE01D4D6D6805F400351DB1DD
:1010F0001C4D5543056002E0194D5543056002E063
:10110000174D056000BF00BF144D6D6805F0F0017C
:101110000909154D6B5C0568DD4045600F4D6D6834
:1011200005F4E061090A104D6B5C4568DD4085609F
:101130000A4D6D6805F46051C90A0B4D6B5C45683A
:10114000DD40C560054D6D6805F44041890B074DD4
:101150006B5CC568B5FBF3F5056130BD001002405E
:1011600000127A0000093D00120400202204002031
:1011700000200849096809B140F0010006490968E2
:1011800009B140F0040003491031096809B140F089
:1011900002007047208121422C01214210B52A48CB
:1011A000007809284CD2DFE800F03A050E334434C9
:1011B000494B4A00022024490870FFF7F1FAFF204A
:1011C000224908703DE0322021490880FFF7D0FF16
:1011D00020490870084600781F4908701B480078AD
:1011E00030B11E481B490978405C1D49087005E074
:1011F0001C4818490978405C19490870FFF7E4FA5F
:101200000420114908700121174800F095FA18E0F0
:1012100017E0FFF7C5FA00200D49088011E0FFF73D
:10122000BFFA0021104800F087FA00200849088022
:1012300007E007480088FFF7C3FE02E001E000E096
:1012400000BF00BF012010BD4E0400204F0400204D
:101250004C040020520400205104002044040020CB
:10126000530400203C0400200004004010B500F0AE
:1012700001F810BD0CB500200190009033480068C3
:1012800040F480303149086000BF3048006800F405
:10129000003000900198401C0190009818B9019806
:1012A000B0F5A06FF1D12948006800F4003010B10A
:1012B0000120009001E0002000900098012843D117
:1012C0002348006840F01000214908600846006883
:1012D00020F0030008600846006840F00200086043
:1012E0001A484068194948600846406848600846FE
:1012F000406840F4806048600846406820F47C10F4
:1013000048600846406840F4E810486008460068B5
:1013100040F08070086000BF0C48006800F000706A
:101320000028F9D00948406820F0030007494860C8
:101330000846406840F00200486000BF034840682B
:1013400000F00C000828F9D10CBD0000001002408C
:1013500000200240042808D14FF0E021096941F043
:1013600004014FF0E022116107E04FF0E02109692C
:1013700021F004014FF0E0221161704710B501F037
:1013800037F9012801D001F019F910BD70B50546F3
:101390000420FFF7DFFF104800681049B0FBF1F0B0
:1013A0000F4908700C4800680C49B0FBF1F44FF489
:1013B0007A70444301200B4908804FF0E020006917
:1013C00040F002004FF0E0210861084644610069E6
:1013D00040F00100086170BD2804002040420F0069
:1013E000780400207A04002010B51348006840F00B
:1013F00001001149086008464068104908400E493C
:101400004860084600680E4908400B4908600846D5
:10141000006820F4802008600846406820F4FE0040
:1014200048604FF41F008860FFF720FF4FF0006016
:101430000449086010BD0000001002400000FFF8E1
:10144000FFFFF6FE08ED00E010B500221146074848
:1014500000F060F900220421044800F05BF900224A
:101460000821024800F056F910BD0000002C014090
:1014700000B589B0012140F60D00FFF7EFFD4FF4F4
:10148000E060ADF8200018208DF8230003208DF8CF
:10149000220008A92D48FFF78CFA4FF46040ADF800
:1014A000200010208DF8230003208DF8220008A9C9
:1014B0002748FFF77EFA0020ADF81400ADF81600BB
:1014C00040F20770ADF818000020ADF81A008DF852
:1014D0001C0005A91F4800F075FB6020ADF8040052
:1014E0000120ADF806000020ADF80800ADF80A00B4
:1014F000ADF80C00ADF80E00ADF81000ADF812001C
:1015000001A9144800F046FA0821124800F08EFAAA
:1015100001A9104800F094FA08210E4800F0E2FA00
:1015200001A90C4800F0ECFA08210A4800F038FB49
:101530000121084800F0E2F80121064800F008F90E
:101540000121044800F0F8F809B000BD000801408E
:10155000000C0140002C014010B50121880700F06B
:10156000FEF928B1FFF7FCFA0121880700F0E1F845
:1015700010BD1FB501210846FFF750FD4720ADF80B
:1015800004000920ADF800000020ADF80600ADF819
:10159000020069464FF0804000F014FB01218807EB
:1015A00000F0C7F801221146900700F0E9F91C206D
:1015B0008DF80C0002208DF80D0001208DF80E0032
:1015C0008DF80F0003A8FFF7F7FB0121880700F053
:1015D000B3F81FBD10B50121074800F0C0F950B1A4
:1015E0000648006880F001000549C1F8800101212A
:1015F000014800F09EF810BD0004004080812142A7
:10160000008021421FB501210220FFF707FD4FF6A0
:10161000FF70ADF804001220ADF800000020ADF816
:101620000600ADF8020069460F4800F0CBFA012130
:101630000D4800F07EF8012211460B4800F0A0F999
:101640001D208DF80C0002208DF80D0001208DF872
:101650000E008DF80F0003A8FFF7AEFB0021024833
:1016600000F06AF81FBD0000000400401FB5012112
:101670000420FFF7D3FC174800F07AF84720ADF8B4
:10168000080040F2E730ADF804000020ADF8060095
:10169000ADF80A0001A90F4800F094FA01210D48A5
:1016A00000F047F8012211460A4800F069F90121CB
:1016B000084800F041F81E208DF8000002208DF847
:1016C000010001208DF802008DF803006846FFF745
:1016D00073FB1FBD0008004010B50121054800F054
:1016E0003EF930B10120044908700121014800F0A1
:1016F00020F810BD000800401004002021B102882D
:1017000042F08002028004E002884FF67F731A40A4
:101710000280704730B5002301248C40A3B2048CB2
:101720009C430484048C02FA01F5ADB22C4304847A
:1017300030BDCA430282704721B1028842F00102E3
:10174000028004E002884FF6FE731A400280704760
:1017500031B1B0F8442042F40042A0F8442005E042
:10176000B0F84420C2F30E02A0F8442070470000F5
:1017700010B504466848844208D10121C014FFF71F
:101780007DFC0021E014FFF779FCC4E0B4F1804F48
:1017900008D101210846FFF751FC00210120FFF785
:1017A0004DFCB8E05D48844208D101210220FFF7DA
:1017B00045FC00210220FFF741FCACE05848844280
:1017C00008D101210420FFF739FC00210420FFF794
:1017D00035FCA0E05348844208D101210820FFF7DE
:1017E0002DFC00210820FFF729FC94E04E4884429C
:1017F00008D101211020FFF721FC00211020FFF764
:101800001DFC88E04948844208D101212020FFF7CF
:1018100015FC00212020FFF711FC7CE044488442A5
:1018200008D101214014FFF729FC00216014FFF7C3
:1018300025FC70E03F48844209D10121C804FFF72C
:101840001DFC00214FF40020FFF718FC63E03A482C
:10185000844209D101210805FFF710FC00214FF453
:101860008010FFF70BFC56E03448844209D1012177
:101870004805FFF703FC00214FF40010FFF7FEFBC3
:1018800049E02F48844208D101214020FFF7D6FBD0
:1018900000214020FFF7D2FB3DE02A48844208D1D6
:1018A00001218020FFF7CAFB00218020FFF7C6FB43
:1018B00031E02548844208D101218015FFF7BEFBA5
:1018C0000021A015FFF7BAFB25E02048844209D18A
:1018D00001210804FFF7D2FB00214FF48030FFF70D
:1018E000CDFB18E01A48844209D101214804FFF7D2
:1018F000C5FB00214FF40030FFF7C0FB0BE015489B
:10190000844208D101218804FFF7B8FB00214FF47D
:101910008020FFF7B3FB10BD002C01400004004005
:1019200000080040000C004000100040001400407F
:1019300000340140004C014000500140005401407F
:1019400000180040001C0040002000400040014002
:1019500000440140004801400146888C704730B582
:101960000246002000230024158A05EA0103958918
:1019700005EA010413B10CB1012000E0002030BDE4
:101980001AB183890B43838102E083898B4383816E
:101990007047000070B5002400220023058C4FF62C
:1019A000FE7635400584028C8388048B4FF68F7554
:1019B0002C40B51E2C400D882C43751E2A400D89E5
:1019C0002A434D882A43144DA8420BD0134DA842F8
:1019D00008D0134DA84205D0124DA84202D0124D96
:1019E000A84213D14FF6F7752A404D892A434FF686
:1019F000FB752A408D882A434FF6FF652B404FF632
:101A0000FF552B408D892B43CD892B438380048345
:101A1000CD888586028470BD002C014000340140D1
:101A20000040014000440140004801400A460021B6
:101A3000018B4FF6F7731940114301837047000083
:101A400070B5002400220023058C4FF6EF76354058
:101A50000584028C8388048B48F6FF752C404FF672
:101A6000FF452C400D884FF6FF7606EA05252C43EE
:101A70004FF6DF752A400D8906EA05152A434D8881
:101A800006EA05152A43154DA84202D0144DA84276
:101A90001DD14FF67F752A404D894FF6FF7606EA35
:101AA00005152A434FF6BF752A408D8806EA0515AD
:101AB0002A434FF6FF352B404FF2FF752B408D899F
:101AC00006EA85052B43CD8906EA85052B438380ED
:101AD0000483CD880587028470BD0000002C01407E
:101AE000003401400A460021018B4FF2FF73194078
:101AF0004FF6FF7303EA0223194301837047000086
:101B000070B5002400220023058C4FF6FF66354097
:101B10000584028C8388848B4FF68F752C404FF69A
:101B2000FC752C400D882C434FF6FF552A400D893B
:101B30004FF6FF7606EA05252A434D8806EA052575
:101B40002A43154DA84202D0144DA8421DD14FF290
:101B5000FF752A404D894FF6FF7606EA05252A4390
:101B60004FF6FF352A408D8806EA05252A434EF6B2
:101B7000FF752B404DF6FF752B408D8906EA051544
:101B80002B43CD8906EA05152B4383808483CD88BA
:101B90008587028470BD0000002C014000340140A4
:101BA0000A460021818B4FF6F77319401143818358
:101BB00070478186704701877047818770478184AD
:101BC00070470000002202881D4B98420ED01D4B2A
:101BD00098420BD0B0F1804F08D01B4B984205D0F3
:101BE0001A4B984202D01A4B984204D14FF68F7389
:101BF0001A404B881A43174B984207D0164B98420D
:101C000004D04FF6FF431A40CB881A4302808B88DA
:101C100083850B8803850A4B98420BD0094B984269
:101C200008D00E4B984205D00D4B984202D00D4B78
:101C3000984201D10B7A038601238382704700000A
:101C4000002C014000340140000400400008004026
:101C5000000C004000100040001400400040014013
:101C6000004401400048014010B5FFF7EDFB0122A0
:101C700000210948FFF74EFD0020084908600120B7
:101C80000749C1F8B8010020C1F8BC010548008827
:101C9000FFF796F910BD0000002C0140B4812142ED
:101CA000008021424C04002010B5FFF7CDFB01223B
:101CB00000210848FFF72EFD00200749086007496A
:101CC000C1F8B8010120C1F8BC0105480088FFF740
:101CD00077F910BD002C0140B481214200802142DF
:101CE0004C04002010B540F225511D4800F0B8F812
:101CF00010B31B4800F070F9C4B21A48008800F411
:101D00000040C8B91748008800F4804060B10A2C30
:101D100003D000201349088020E01248008840F4D6
:101D200000401049088019E00D2C06D10D480088AC
:101D300040F480400B49088010E00A480088C0F356
:101D40000D0009490C5407480088401C05490880CB
:101D500008460088C72801DD0020088010BD00006B
:101D6000003801407C040020D004002010B586B06B
:101D70000446012144F20900FFF770F94020ADF854
:101D8000140018208DF8170003208DF8160005A9FF
:101D90002048FEF70EFE8020ADF8140004208DF8D8
:101DA000170005A91B48FEF704FE01210420FEF7D9
:101DB0008BFE4FF4E13001900020ADF80800ADF843
:101DC0000A00ADF80C00ADF810000C20ADF80E00C4
:101DD00001A9114800F094F801210F4800F027F8FC
:101DE00040210D4800F01AF8012240F225510A481E
:101DF00000F060F825208DF8000003208DF8010028
:101E00008DF8020001208DF803006846FEF7D4FF2C
:101E100006B010BD000C01400038014001F4007212
:101E2000B2F5007F00D100BFCA430280704721B1E4
:101E3000828942F40052828104E082894DF6FF7368
:101E40001A408281704702460020B1F5007F00D120
:101E500000BF13880B400BB1012000E00020704749
:101E600070B50246002400230025002040F66A16C3
:101E7000B14200D100BFC1F3421501F01F0301269A
:101E800006FA03F3012D02D19689334006E0022DB4
:101E900002D1168A334001E0968A33400C120126A3
:101EA00006FA04F41688344013B10CB1012000E0A6
:101EB000002070BDF0B50346002400260025002058
:101EC00040F66A17B94200D100BF1846C1F3421468
:101ED00001F01F06012707FA06F5012C01D10C308D
:101EE00004E0022C01D1103000E014301AB1076870
:101EF0002F43076002E00768AF430760F0BD0000B2
:101F00002DE9F04786B005460E460024A24600BFE4
:101F1000A1460027B08900B100BF2F462C8A4CF69D
:101F2000FF700440F08804432C82AC894EF6F31015
:101F30000440B08831890843718908430443AC8167
:101F4000AC8A4FF6FF400440B0890443AC8201A83C
:101F5000FFF7A4F81F48874202D1DDF810A001E086
:101F6000DDF80CA0A88900F4004040B10AEBCA00DB
:101F700000EB0A1031684900B0FBF1F807E00AEB0A
:101F8000CA0000EB0A1031688900B0FBF1F8642048
:101F9000B8FBF0F004012009642101FB1089A88935
:101FA00000F4004040B1322000EBC900B0FBF1F07A
:101FB00000F00700044308E0322000EB0910642120
:101FC000B0FBF1F000F00F0004432C8106B0BDE837
:101FD000F08700000038014001468888C0F30800FF
:101FE0007047C1F308028280704700BFFEE700001F
:101FF00010B5FFF729FA012204210848FFF78AFBF0
:1020000001200749086000200649C1F8B801C1F85D
:10201000BC0105480088FEF7D3FF10BD002C01402D
:10202000B4812142008021424C04002010B5FFF70A
:102030000BFA012204210848FFF76CFB0020074936
:1020400008600749C1F8B8010120C1F8BC01054882
:102050000088FEF7B5FF10BD002C0140B48121427D
:10206000008021424C0400202DE9F0411C480088EA
:10207000642807DA00201B4908701B4908701B49B7
:1020800008702BE01948007830B105201549087018
:1020900000201549087021E013480078012804D079
:1020A000012010490870104908700D48008840F65A
:1020B000D271884204DD40F207700D4908800DE0BE
:1020C00007480088FEF710F906460A4A0A4BFEF751
:1020D00099F80446FEF715F905490880BDE8F08136
:1020E000640400204E040020550400205A040020FF
:1020F0004C040020CDCCCCCCCCCCDC3F10B5FFF7D1
:10210000A3F9012208210848FFF704FB0120074931
:10211000086000200649C1F8B801C1F8BC010548B3
:102120000088FEF74DFF10BD002C0140B481214214
:10213000008021424C04002010B5FFF785F90122F0
:1021400008210948FFF7E6FA002008490860012045
:102150000749C1F8B8010020C1F8BC010548008852
:10216000FEF72EFF10BD0000002C0140B48121427B
:10217000008021424C0400202DE9F04105462C4608
:1021800000261CE027464FF480611448FEF7E4FC6B
:1021900007F08007802F04D139011048FEF7DEFCDC
:1021A00004E04FF400610D48FEF7D6FC6006040E13
:1021B0004FF480610948FEF7D1FC701CC6B2082EAE
:1021C000E0DB4FF480610548FEF7C6FC4FF4806108
:1021D0000248FEF7C3FCBDE8F0810000000C01409E
:1021E0000FB4054B10B503A9044A029800F018F883
:1021F00010BC5DF814FB0000D9230008BC040020CB
:1022000002E008C8121F08C1002AFAD170477047BF
:10221000002001E001C1121F002AFBD1704700001D
:102220002DE9FF4F8BB09A460F460546002606E083
:1022300025280BD052460D9990476D1C761C2878A6
:102240000028F5D10FB03046BDE8F08F0024A0463D
:102250000122604900E0044315F8013F203B02FAE7
:1022600003F00842F7D128782E2817D115F8010F6E
:1022700044F004042A280ED06FF02F022878A0F131
:10228000300109290AD808EB880102EB410100EB73
:1022900001086D1CF2E757F8048B6D1C287869283B
:1022A0003ED006DC0028CDD063280BD0642804D1B2
:1022B00036E0732810D075284BD052460D999047C0
:1022C000761C85E017F8040B8DF8000000208DF8CF
:1022D0000100E946012003E057F8049B4FF0FF306E
:1022E00061074FF0000401D40AE0641C44450DDA94
:1022F0008442FADB19F804100029F6D106E0641CC8
:102300008442FCDB19F804100029F8D1264404E0CB
:1023100019F8010B52460D999047641EF8D257E008
:1023200001CF4FF00A0B002802DA40422D2102E0D3
:10233000210504D52B218DF82410012103E0E107AC
:1023400005D02021F7E70DF1200908910CE00021CC
:10235000F9E701CF4FF00A0BF9E75946FDF7EAFF1D
:1023600001F1300209F8012D0028F6D1ADEB09008A
:1023700000F1200B600701D44FF00108D84502DDC1
:10238000A8EB0B0000E000208046002406E009A82E
:102390005246005D0D999047641C761C0898844253
:1023A000F5DB04E0302052460D999047761CB8F1D9
:1023B0000001A8F10108F5DC05E019F8010B52460F
:1023C0000D999047761CBBF10001ABF1010BF4DCD9
:1023D0006D1C34E70928010070B504460D46E1B2D2
:1023E0000548FFF7FEFD00BF80210348FFF72BFDE6
:1023F0000028F9D0204670BD003801404820FEF783
:10240000C5FF4FF4E130FFF7B1FCFEF72DFDFEF7FD
:102410000BFDFFF72BF9FEF7A3FCFFF729F8FFF7F9
:10242000A8F8FFF7EFF8FEF72DF9FEF743FC2CE0D4
:10243000FEF7B4FE1548007838B31548007878B137
:1024400014480088401C1349088008460088B0F5ED
:10245000FA6F08DB0020088001200F49087002E0B5
:1024600000200C490880002008490870FEF7DAFBBC
:10247000FFF7FAFD09480078401C08490870084633
:102480000078C82801DB00200870D1E71004002084
:1024900056040020580400205A0400201104002093
:1024A0000A490968096809B9012100E0002121B140
:1024B0004FF0FF31064A116006E004490968C96817
:1024C000C868034A41681160704700008404002016
:1024D000B004002001460A69D1E901309860D1E9D1
:1024E000010358605068884201D18868506000201C
:1024F00008611068401E10601068704742684A60AA
:1025000093688B60936859609160086103685B1CF5
:102510000360704710B51B48006818B101201A49C4
:1025200008602DE000201849086018480068B0FADB
:1025300080F0C0F11F0404EB8400154951F820001D
:1025400008B1012000E0002028B940F6F62211A1D0
:1025500015A0FFF745FE04EB84010D4A02EB810054
:1025600041684968416000F1080142688A4202D12D
:102570004168496841604168C9680F4A116000BFFD
:1025800010BD0000B8040020A4040020980400201E
:10259000980500204672656552544F535C74617310
:1025A0006B732E63000000004572726F723A2573E0
:1025B0002C25640D0A0000008004002010B500BF27
:1025C000502080F31188BFF34F8FBFF36F8F00BF90
:1025D00000F01EF818B14FF080500449086000BFA9
:1025E000002080F3118800BF10BD000004ED00E062
:1025F0000549096809B9012005E00449096809B9D4
:10260000022000E0002070479C040020B804002055
:102610002DE9F0414FF0000841480068002872D1D0
:1026200040480068451C3F480560EDB93E480068D9
:10263000006808B9012000E0002028B940F6D9124E
:102640003AA13FA0FFF7CCFD374807684048006833
:10265000354908603E4807603E480068401C3D49D7
:102660000860FFF71DFF00BF3B48006885423CD370
:1026700000BF2D480068006808B9012000E0002074
:1026800020B14FF0FF30344908602DE02648006843
:10269000C068C4686668B54202D22F48066023E06D
:1026A000201DFFF717FFA06A18B104F11800FFF70B
:1026B00011FF94F82C10012088402849096808432C
:1026C00026490860E16A01EB8101254A02EB81009D
:1026D000211DFFF713FF2349E06A0968C96A884290
:1026E000C7D34FF00108C4E700BF1E480068C06AA6
:1026F00000EB80001A4951F82000012801D94FF061
:10270000010805E0FFE718480068401C164908600A
:102710001648006808B14FF001084046BDE8F08156
:10272000B8040020940400208404002046726565EB
:1027300052544F535C7461736B732E63000000003E
:102740004572726F723A25732C25640D0A000000E1
:1027500088040020A8040020B00400209804002071
:102760009805002080040020A0040020A40400207C
:102770009027000800000020C00400007E0400082C
:10278000A0280008C0040020C00700001022000894
:102790001116060AFE0AC612E012F062F84EFE7D1D
:1027A000BBC7EF01053EC7BB7DFE300D080CFEFE2A
:1027B0000C082060FEFE60208F7848FE82BABA03C3
:1027C00009135EAA0101017E6CFEFF0301CBFFFF2E
:1027D0000F39BBECC0C0C0271918F927013929757A
:1027E000990B6CFFFF0C01491A0C22E1E1E1270172
:1027F000396C0F1F1801FB1F0F0F092E270136160A
:102800008C4222120C26FC020202FC3304FE16202B
:102810005844FE402A10015912491E4912A92A01A2
:1028200023300A24A42E24E4242EA424C00AF84A27
:102830004C48F8484C4AF82A01013907490D591506
:10284000991F9918091412712BC020A1AB20C00A3E
:1028500011300A120A07027F02070A121E0B0A0A27
:102860000A7F0402560B980A1F2040404050205F08
:10287000800A01162D010203040430090607080925
:1028800002040608ACA24A041E291A130604100BFF
:102890000502030106060103020503740406000095
:0400000508000131BD
:00000001FF
