:101A1700C2AF7596AA759655E4F58F758EE7D2AF66
:011A2700229C
:0D000E00C2AF75870490F690E4F0D2AF22E7
:0E1A2800C2AF7596AA759655759703D2AF2278
:0E1A3600C2AF7596AA759655439701D2AF229E
:1016BD00759AC175A1FF75A27175A3B8E4F580F592
:1016CD0090F5A0F5B090F00204F0A3F0A3F0A3F014
:1016DD0090F023F090F036F090F022F090F036F08C
:0516ED0090F030F02236
:10192A00E4F5A8F5B8F5AAF5CFF5ACF5ADF5AEF541
:10193A00AFF588F5C9F5B2F5B4F5B5F5B6F5B7C2A0
:02194A00AF22CA
:1019F300758912758CB0758AB0C28DD2B9D2A9D24D
:021A03008C2233
:0D1A4400758DF0758B60C28FD2ABD28E22F3
:091A750043D201E4F5DBF5DA22AD
:01000A0022D3
:1019690090F5C07483F090F5C274FFF090F5C174DE
:0B197900ECF0759105759840D2AC228F
:1013BA0090F1207410F090F1237401F0A3F0A3F0DF
:1013CA0090F12A7404F090F12CF090F12EF090F143
:1013DA0031F090F13074B0F090F1357404F090F17E
:1013EA003474B0F090F1397404F090F13874B0F0BC
:1013FA0090F1417401F090F140742CF090F1457431
:10140A0001F090F144742CF090F1497401F090F1DC
:10141A0048742CF090F1277415F090F122E4F090C2
:10142A00F121743FF090F1607407F0A37413F0A3F4
:10143A00F0A3F090F01714F090F01404F090F01666
:10144A0004F090F01304F090F01504F090F000040A
:0E145A00F090F129743FF090F1267415F02205
:1017560090F500740EF090F502E4F090F50CF09020
:10176600F506741AF0A37404F043B98090F500E00E
:0D1776004480F090F5087401F0A3E4F02227
:10199D0090F503E4F090F5057418F090F50DE4F072
:0819AD0090F503E04480F022F4
:0100220022BB
:1019CB0090F5297433F0A37410F0A3E4F090F5298B
:0519DB00E04480F02251
:0700030075BF0375BEBC22AE
:10178300121A1712000E121A28121A361216BD1246
:10179300192A1219F3121A44121A7512000A12198D
:0D17A300691213BA1200221219CB020003C2
:100B6200C11C4100590042004F000042005A0000DF
:100B7200420041000042004D000042004700004296
:100B82000055000042003D000042004500004200C6
:100B92005E00004200390000420051000042005C49
:100BA2000000420060000042004300004200530087
:100BB2000042003B000042004B0000420057000090
:0A0BC20042003F000042004900001D
:10091C0075DF4075DEC843DF02E5DF20E1FBAFDDAC
:10092C00EFFEADDC7C00E42DFFEC3E90004FF0A31D
:10093C00EFF0E4F5DDF5DC75DFC075DEC143DF02F9
:10094C00E5DF20E1FBAFDDEFFEADDC7C00E42DFF4D
:10095C00EC3E900047F0A3EFF0E4F5DDF5DC75DF3D
:10096C00D075DEC743DF02E5DF20E1FBAFDDEFFE34
:10097C00ADDC7C00E42DFFEC3E90005EF0A3EFF0CC
:10098C00E4F5DDF5DC75DF4075DEC943DF02E5DF3C
:10099C0020E1FBAFDDEFFEADDC7C00E42DFFEC3E97
:1009AC00900043F0A3EFF0E4F5DDF5DC90004FE0B0
:1009BC00FEA3E0FF90005BE02FF090005AE03EF0C9
:1009CC00900047E0FEA3E0FF900056E02FF090006F
:1009DC0055E03EF090005EE0FEA3E0FF90003AE0B0
:1009EC002FF0900039E03EF0900043E0FEA3E0FFD2
:1009FC00900054E02FF0900053E03EF0900059E04E
:100A0C0004F0E064086003020B1AF0A3E0FEA3E01C
:100A1C007803CEC313CE13D8F9FF90004DEEF0FC43
:100A2C00A3EFF0FD900055E0C313FEA3E013FFEE1F
:100A3C00C4F854F0C868FEEFC4540F48FF9000454A
:100A4C00EEF0A3EFF0900039E0C313FFA3E0139096
:100A5C000051CFF0A3EFF0900051E0FEA3E078023C
:100A6C00CEC313CE13D8F9F0EE900051F09000578E
:100A7C00E0C313FEA3E0137802CEC313CE13D8F950
:100A8C00FF90003FEEF0A3EFF0900053E0FEA3E0E8
:100A9C007803CEC313CE13D8F9FF90003BEEF0A32E
:100AAC00EFF0D3ED9478EC9400401190004DE0FF02
:100ABC00A3E0900041CFF0A3EFF08007E490004159
:100ACC00F0A3F090003DE0FEA3E0FF2406FDE43E21
:100ADC00FC900045E0FAA3E0FBD39DEA9C500EEBA2
:100AEC002406FDE43AFCD3EF9DEE9C400890003DBB
:100AFC00EAF0A3EBF0E490005AF0A3F0900055F06C
:100B0C00A3F0900039F0A3F0900053F0A3F0900004
:100B1C007DE0C394C8501E900051E0FEA3E0FF900E
:100B2C00005CEEF0A3EFF02420FFEE3403900060A5
:100B3C00F0A3EFF02290007D74D2F090005CE0FE08
:100B4C00A3E0FFD39400EE9400400AEF9464EE947B
:060B5C00005002D21C2231
:100BCC00C118C119C11AC11B011800011900011A61
:070BDC0000011B00011700DE
:1012CE0090003BE0FEA3E0FF2432FDE43EFCD3EDB4
:1012DE00941BEC94054021EF24CEFFEE34FFFEC3A9
:1012EE00EF941BEE940550100518E518C3941440A6
:1012FE000C751814D2188005E4F518C218D3ED94A5
:10130E00ABEC9402402790003CE024CEFF90003BD3
:10131E00E034FFFEC3EF94ABEE940250100519E5D6
:10132E0019C39414400C751914D2198005E4F519DB
:10133E00C21990003BE0FEA3E0FF2432FDE43EFC28
:10134E00D3ED9401EC94084021EF24CEFFEE34FF50
:10135E00FEC3EF9401EE94085010051AE51AC394DB
:10136E0014400C751A14D21A8005E4F51AC21A909C
:10137E00003BE0FEA3E0FF2432FDE43EFCD3ED94FF
:10138E0037EC94074020EF24CEFFEE34FFFEC3EF80
:10139E009437EE9407500F051BE51BC39414400BB6
:0C13AE00751B14D21B22E4F51BC21B228D
:101686001212CEE517701B201809201906201A031E
:10169600301B0F751701301809300304C20380028E
:1016A600D203E517B4010F20180C201909201A06D9
:0616B600201B03E4F51700
:0116BC00220B
:1015F400900041E0FCA3E0FDD394C8EC9400401DAE
:10160400D20BE41202EE7B067A817995783E1201C0
:1016140076120327900033EEF0A3EFF022C20BD230
:1016240006C208C205C20AC200C20DC209E4900083
:0B16340026F0A3F0900033F0A3F0229A
:1010AF000001010201020203010202030203030411
:1010BF0001020203020303040203030403040405F1
:1010CF0001020203020303040203030403040405E1
:1010DF0002030304030404050304040504050506C1
:1010EF0001020203020303040203030403040405C1
:1010FF0002030304030404050304040504050506A1
:10110F000203030403040405030404050405050690
:10111F000304040504050506040505060506060770
:10112F000102020302030304020303040304040580
:10113F000203030403040405030404050405050660
:10114F000203030403040405030404050405050650
:10115F000304040504050506040505060506060730
:10116F000203030403040405030404050405050630
:10117F000304040504050506040505060506060710
:10118F000304040504050506040505060506060700
:10119F0004050506050606070506060706070708E0
:1011AF0007040005020301070701030205000407F6
:100BE3000169004100280041003200C10FC103C167
:100BF30007410021004100220041002500C10241BC
:100C0300001900420030000042002B000042002E79
:100C13000000420000000046000600000000000043
:100C230042001700004200040000C10BC104C105CB
:100C3300C10AC100C109C108C10D4100030042003E
:100C430035000041000200C106024F0000015900B7
:100C5300015A00065B000000000000C10CC1014105
:100C630000140002490000024D0000014800014643
:100C73000001510001470002440000C10E0263005D
:100C830000045500000000202024000000000000A4
:100C93000000000000000000000000000000000051
:100CA3000000000000000000000001540042001595
:100CB300000042001F0000420026000042003300F3
:100CC3000041002D000265000041001A0042003778
:100CD300000046000E00000000000044001B00005E
:100CE30000004200290000420023000002520000DD
:100CF30042000C0000024B0000026700000261008A
:010D030000EF
:10182E0090F1647434F0E552FF90F141EFF090F1D5
:10183E0040E553F090F145E4F090F144F090F12939
:04184E007405F0220B
:1018520090F164741CF0E552FF90F141EFF090F1C9
:1018620040E553F090F149E4F090F148F090F1290D
:041872007411F022DB
:1018760090F1647413F0E552FF90F145EFF090F1AA
:1018860044E553F090F149E4F090F148F090F129E5
:041896007414F022B4
:10189A0090F1647431F0E552FF90F145EFF090F168
:1018AA0044E553F090F141E4F090F140F090F129D1
:0418BA007405F0229F
:1018BE0090F164740DF0E552FF90F149EFF090F164
:1018CE0048E553F090F141E4F090F140F090F129A9
:0418DE007411F0226F
:1018E20090F1647407F0E552FF90F149EFF090F146
:1018F20048E553F090F145E4F090F144F090F1297D
:041902007414F02247
:100D5E0090001AE0C39F5003020F0C900021E0D3C5
:100D6E0094065003020F0CE490001AF0900015E068
:100D7E00FEA3E0FF900027E09FFF900026E09EFE7E
:100D8E00900037F0A3EFF0900010E0FDA3E0A3CDAC
:100D9E00F0A3EDF090000EE0FDA3E0A3CDF0A3EDE7
:100DAE00F090000EEEF0A3EFF0A3E0FCA3E0FDC385
:100DBE00EF9DFDEE9CFC1202EEAB0CAA0BA90AA84D
:100DCE0009120176C004C005C006C00790000EE0EF
:100DDE00FCA3E0FDEC1202EEAB10AA0FA90EA80DBB
:100DEE00120176D003D002D001D000120085C004CB
:100DFE00C005C006C007900012E0FEA3E0FF900001
:100E0E000FE02FFD90000EE03EFC900011E025E07B
:100E1E00FF900010E033FEC3ED9FFDEC9EFC12022E
:100E2E00EEAB14AA13A912A811120176D003D002A8
:100E3E00D001D00012008590001B1204BCAC15AD81
:100E4E0016EC1202EE90001BE0F8A3E0F9A3E0FA14
:100E5E00A3E0FB12027C6010400EAC15AD16EC1236
:100E6E0002EE90001B1204BCC3E49516FDE495152A
:100E7E00FC1202EE90001BE0F8A3E0F9A3E0FAA347
:100E8E00E0FB12027C5014C3E49516FDE49515FCAC
:100E9E001202EE90001B1204BC8014E4900029F0A4
:100EAE00A3F0600BE024FFF0900029E034FFF090F7
:100EBE000029E0FCA3E0FDE41202EEA804A905AAB5
:100ECE0006AB0790001BE0FCA3E0FDA3E0FEA3E051
:100EDE00FF120081C004C005C006C00790000CE0E0
:100EEE00FCA3E0FDEC1202EED003D002D001D00044
:100EFE0012008512032790000CEEF0A3EFF0C390C2
:100F0E00000DE0941E90000CE0648094805006E486
:100F1E00F0A3741EF0D390000DE094B090000CE09E
:100F2E006480948440077404F0A374B0F090000CB5
:070F3E00E4F0A37432F0227D
:10190600300E0BC20EE4900015F0A3F08011AFDB91
:10191600EFFEADDA7C00E42DF564EC3EF563E4F50C
:04192600DBF5DA22F1
:1017DD008E528F53D3E553941EE5526480948050FE
:1017ED000675520075531EC3E55394B0E5526480DF
:0B17FD00948440067552047553B0221E
:101A0500E4FF30B1032404FF30B2010F3081020F2F
:011A15000FC1
:011A160022AD
:10172600900025E014601314601314601314601302
:101736001460132405701202182E0218520218762D
:1017460002189A0218BE0218E290F164743FF02261
:1004F900200503200B03E4F569E569600DA20F30BF
:100509000301B350117569058008A20F300301B3C7
:100519005004A203920FE5691470030205DF1470F9
:10052900030206FB1470030206FD1470030207752B
:100539002404600302091B90F164743FF090F141B7
:10054900E4F090F140F090F145F090F144F090F131
:1005590049F090F148F090F1297415F053D2F7530E
:10056900B2FEE4F5DBF5DA200B0302091B3005596D
:10057900200A0302091B900002E0700302091BE430
:10058900F0D208A3E0C394045031900035E0FEA3F3
:10059900E0FFC394D0EE94075006C205C20A803228
:1005A900C3EF9498EE94085004E4F569229000038F
:1005B900E004F0E4900035F0A3F022E4900003F0A9
:1005C900900035F0A3F0D20D22E4900035F0A3F0AD
:1005D900C20875690122E490000AF0A3F0900008AE
:1005E900F0A3F0900006F0A3F0900000F0A3F090C3
:1005F9000017F0A3F0900004F0A3F090002EF0A3F0
:10060900F090002BF0A3F0900030F0A3F0900026BA
:10061900F0A3F0900033F0A3F0F558F557F556F52F
:1006290055F543F542F541F540F53FF53EF53DF504
:100639003CF53BF53AF539F538F537F536F535F545
:1006490034F533F532F531F530F52FF52EF52DF575
:100659002CF52BF52AF529F528F527F526F525F5A5
:1006690024900015F0A3F0F563F564F549F54A9077
:1006790000147403F0E4F567F568F54BF54C900048
:1006890021F09000257403F0754D00754E64755284
:1006990000755328E490000CF0A3F0900037F0A304
:1006A900F0900012F0A3F0900010F0A3F090000E6B
:1006B900F0A3F090001B1204C800000000E49000B1
:1006C90029F0A3F0C209C200900022F0C20AC205B3
:1006D900A203920FF560F55FF55EF55DF55CF55BDC
:1006E900F54FF55012182E30060475690222756906
:1006F9000322807490000CE0FEA3E0FF1217DD12C4
:100709001A05900032EFF0900028F0900032E030A6
:100719000F059011B780039011AF93900025F01247
:10072900172675481EE4F549F54A90000AF0A3F02A
:10073900900008F0A3F0900006F0A3F0900000F0FC
:10074900A3F0900017F0A3F0900004F0A3F090003C
:100759002EF0A3F090002BF0A3F0900030F0A3F05E
:10076900F546900026F0A3F075690422900021E077
:10077900D394F04009E4900035F0A3F0C208E5D223
:1007890020E30B43D20853B2FEE4F5DBF5DA90001F
:100799002DE0C394015003020827E4F0900026E0FD
:1007A900FEA3E0FF900033E0FCA3E0FD6F7002ECD4
:1007B9006E606BD3ED9FEC9E402EEF2405FFE43E67
:1007C900FED3ED9FEC9E4010900027E02405F090A9
:1007D9000026E03400F08046900027E004F0703EE7
:1007E900900026E004F08036900026E0FEA3E0FFAA
:1007F900C3ED9FEC9E5027900034E02405FD900046
:1008090033E03400FCD3EF9DEE9C900027E04004D8
:1008190024FB800224FFF0900026E034FFF0300E24
:100829000B53B2FEE4F5DBF5DA0208E590001FE0B0
:100839007002A3E070030208E5E490001FF0A3F042
:10084900E543253FFFE542353EFEE541353DFDE502
:1008590040353CFCEF253BFFEE353AFEED3539FDE1
:10086900EC3538FCEF2537FFEE3536FEED3535FD35
:10087900EC3534FCEF2533FFEE3532FEED3531FD35
:10088900EC3530FCEF252FFFEE352EFEED352DFD35
:10089900EC352CFCEF252BFFEE352AFEED3529FD35
:1008A900EC3528FCEF2527FFEE3526FEED3525FD35
:1008B900EC3524FC780312049D8F588E578D568C85
:1008C90055AB58AA57A956A8557F007E5A7D627C18
:1008D900021203FD900015EEF0A3EFF0750CB87548
:1008E9000B1E750A0575093E75100A750FD7750E29
:1008F900A3750D3BE4F514F513F512F511F515750E
:1009090016DC7F04120D5E900026E0FEA3E0FF12C4
:0309190017DD22C5
:03000B00020F459C
:100F4500C0E0C0F0C083C082C0D075D000C000C072
:100F550004C005C006C007C28DC3E5669410E565EB
:100F6500942750080566E56670020565C390000183
:100F7500E09410900000E09427500CA3E004F0707A
:100F850006900000E004F0E56924FB605A04600364
:100F950002109A121A05900032EFF0900028E06FC7
:100FA500700302109A900032E0FF900028F0300F95
:100FB500059011B78007900032E09011AF93900033
:100FC50025F01217260554E554D3940740037554AC
:100FD50000AE63AF64E4FCFDE55425E025E0242480
:100FE500F81204B002109AD3E56894F4E567940109
:100FF500502D90F164743FF090F141E4F090F14090
:10100500F090F145F090F144F090F149F090F148FD
:10101500F090F1297415F0754B00754C00807675CC
:1010250061037562E8C3E5689562E56795615056A9
:10103500E568249CFFE56734FFFEEF25E0F54CEEFF
:1010450033F54BD3E54C94B0E54B94044006754B12
:1010550004754CB090F1647438F0E54BFFFD90F1E8
:1010650041F0AC4C90F140ECF090F145EDF090F191
:1010750044ECF090F149EFF090F148E54CF090F137
:10108500297415F0800F756700756800754B00753C
:101095004C0F756900D007D006D005D004D000D01C
:0A10A500D0D082D083D0F0D0E0322A
:0300730002163F33
:10163F00C0E0C083C08290F509E4F090F164743F7C
:10164F00F090F141E4F090F140F090F145F090F11D
:10165F0044F090F149F090F148F090F1297415F0B1
:10166F0090F166E4F090F1267415F0D209756900D7
:07167F00D082D083D0E032DD
:03007B00021A5E08
:0C1A5E0053B2FE75DB0075DA00D20E32C8
:100D0400C117C113C111C115C116C112C114C1103B
:100D140041007E0041007D004200750000420079E0
:100D2400000042007B00004100770041007800028F
:030D34001C0000A0
:1017B000121783E490007BF0A3F090007EF090007D
:1017C0007DF0D2AF121A361204F990007EE060F478
:0D17D000E4F012091C1215F412168680E7D1
:03001B0002146864
:10146800C0E0C083C082C0D0C28F758DF0758B601C
:1014780090007EE004F090007DE004F0900002E02F
:1014880004F030081BC3900036E09410900035E05B
:101498009427500CA3E004F07006900035E004F0A7
:1014A800E56924FD601414601B14603F2403704E2A
:1014B8000550E5507002054F8044054AE54A700220
:1014C8000549803A90001AE004F090002DE004F0FD
:1014D800900020E004F0700690001FE004F09000F7
:1014E8007BE4F0A3F0900078F08013C3E56894885B
:1014F800E567941350080568E56870020567D0D061
:07150800D082D083D0E03255
:040D370041007F00F8
:04001E0075FBAA22A2
:04007600E4F5FB2290
:0B180800E4FFFE1219847D057C000F38
:101813008DFE8FFC8EFDC2AF0075FF190000000026
:0B182300000000E5FF20E0FBD2AF2238
:10194C008FFC8EFDC2AF0075FF110000000000007F
:0D195C0000E5FF20E0FBD2AFAFFE7E0022D1
:101984008FFC8EFDC2AF0075FF1D0000000000003B
:0919940000E5FF20E0FBD2AF22C8
:10159B00C2AF12001EE490007FF07F01FE12194CC7
:1015AB00EFF0BF05297F027E0012194C900000EE70
:1015BB00F0A3EFF07F037E0012194C900000EFF0C8
:1015CB007F047E0012194C900000EFF0801512186A
:1015DB0008E4FD0F1218130F1218130F1218130F24
:0915EB00121813120076D2AF228F
:1016F200C2AF12001E121808900000E0FCA3E0FD29
:101702000F121813900000E0FD7C000F12181390C6
:101712000000E0FD0F121813E0FD0F121813120063
:0417220076D2AF22AA
:100D3B0048006C00000000000000004100740041FE
:100D4B00006A6441006B0048006200000000000074
:020D5B00000096
:1011BF00E4FDFC900000E004F0E490006CF0A3F07C
:1011CF00A3F0A3F0A3F0A3F0A3F0A200339000626A
:1011DF00F0A20FE433A3F0A200E433A3F0A204E4DF
:1011EF0033A3F0A205E433A3F0A217E433A3F0E492
:1011FF00A3F0A3F090006BE4F0900062E0FE90008B
:10120F006BF0900063E025E0FBEE4BFE90006BF07F
:10121F00900064E025E025E04EFE90006BF090001A
:10122F0065E033333354F84EFE90006BF090006658
:10123F00E0C454F04EFE90006BF0900067E0C433B2
:10124F0054E04EFE90006BF0900068E0C4333354CE
:10125F00C04EFE90006BF0A374BCF0A37402F0A319
:10126F00EEF0900000E090006FF0900000E0900032
:10127F0070F0900000E0B4030AE4F0900000E090FA
:10128F000000F0900000E0900071F0900000E090FE
:10129F000072F0E4FF746C2FF582E43400F583E004
:1012AF002DFDE43CFC0FBF07EC900073EDF053985D
:0E12BF00FE5398FDA37401F090006CE0F599C9
:0112CD0022FE
:1019E00090006AE0600314F02290006A7464F012C0
:0319F00011BF2202
:03002300020026B2
:10002600C0E0C083C082C0D075D000C007E598305C
:10003600E1275398FD900074E0FFC39408501574AF
:100046006C2FF582E43400F583E0F599900074E0B6
:1000560004F08005900074E4F0E59830E0035398CE
:0C006600FED007D0D0D082D083D0E03292
:0D1A51008F99E59830E1FB5398FD7F00224E
:0B1A6A00E59830E0FB5398FEAF992296
:1019B5001203A8FF600C121A51740129F9E43AFACE
:0619C50080EEE4FEFF22AB
:10007E00020393E86480F8E933E83360110460F01A
:10008E00ED33EC337009E8FCE9FDEAFEEBFF2204E8
:10009E0060DED3EB9FEA9EE99DE8C2E78CF0C2F7E3
:1000AE0095F0400CE8CCF8E9CDF9EACEFAEBCFFBAF
:1000BE0012035E85D0F05804700320D5B3E80470A7
:1000CE00075002B2D502039D92D5EC0460F7E4CC42
:1000DE00C0E0C398F8603B94186008400DD0E0FB78
:1000EE00020375E4FBFAC9FC8028E830E406E4C993
:1000FE00FBE4CAFCE830E305E4C9CACBFCE85407CC
:10010E006010F8C3E913F9EA13FAEB13FBEC13FCD6
:10011E00D8F130F52FC3E49CFCEF9BFFEE9AFEED79
:10012E0099FDD0E0FBEF4E4D4C701222DB03020323
:10013E009AEC2CFCEF33FFEE33FEED33FDED30E7A2
:10014E00EB020375EF2BFFEE3AFEED39FDD0E0FB2F
:10015E0050130BBB000302039DED13FDEE13FEEFD8
:08016E0013FFEC13FC02037502
:10017600EC4D6011E8497017ED33EC3304600DE483
:10018600FCFFFEFD22E933E8330470F80203931204
:10019600035E58046009E4CC248150062850090205
:1001A600039D28400302039AC0E0EB4A7044B980DD
:1001B60006D0E0FB020389EF4E701CBD8008EBFF02
:1001C600EAFEE9FD80EBE98DF0A4FEE5F002025FB0
:1001D600E9CDF9EAFEEBFFEF89F0A4FCE5F0CE8964
:1001E600F0A42EFFE435F0CD89F0A42DFEE435F021
:1001F6008067EF4E7005BD80D780C3EF8BF0A4AC4F
:10020600F0EE8BF0A42CFCE435F0F8EF8AF0A42C89
:10021600E5F038FCE433CB8DF0A42CFCE5F03BF89C
:10022600EE8AF0A42CFCE5F038F8E433CF89F0A48C
:100236002CFCE5F038CF3400CE89F0A42FFFE5F092
:100246003EFEE433C98DF0A42EFEE5F039CD8AF0EA
:10025600A42FFFE5F03EFEE43DFD33D0E0FB500762
:100266000BBB000F02039DEC2CFCEF33FFEE33FEBD
:06027600ED33FD020375EB
:10027C0074F8CC6480CCC86480C8F582046043C335
:10028C00EB9FF5F0EA9E42F0E99D42F0E89C45F0C8
:10029C0060305018E5825FFFE582F42B5582FB50ED
:1002AC00210ABA001D09B90019088016E5825BFB0A
:1002BC00E582F42F5582FF50090EBE00050DBD00DE
:1002CC00010CC3EB9FF5F0EA9E42F0E99D42F0E889
:0D02DC009C45F06007CC4820E701B3EC2200
:1002E90075F020800E75F010800575F0087D007E90
:1002F900007F003392D530D50312048FEC334010C0
:10030900EF33FFEE33FEED33FDEC33FCD5F0ED2298
:0E031900E5F0247EA2D513CC92E7CDCEFF22D4
:10032700EDD2E7CD33EC3392D524814006E4FFFECE
:10033700FDFC22FCE4CFCECDCC24E0501174FF802D
:10034700EDC3CC13CCCD13CDCE13CECF13CF0470CA
:07035700F030D5DE02048F37
:10035E00E9D2E7C933E833F892D5EDD2E7CD33ECE5
:07036E0033FC5002B2D5225E
:10037500EC30E7100FBF000C0EBE00080DBD0004E9
:100385000BEB6014A2D5EB13FCED92E7FD2274FF95
:10039500FCFDFEFF22E480F8A2D574FF13FC7D80EE
:0303A500E480EF02
:0300000002150FD7
:0C150F00787FE4F6D8FD7581690215565E
:1003A800BB010689828A83E0225002E722BBFE0253
:0903B800E32289828A83E4932286
:1003C10075F008758200EF2FFFEE33FECD33CDCCF3
:1003D10033CCC58233C5829BED9AEC99E582984076
:1003E1000CF582EE9BFEED9AFDEC99FC0FD5F0D653
:1003F100E4CEFBE4CDFAE4CCF9A88222B800C1B97D
:100401000059BA002DEC8BF084CFCECDFCE5F0CBBA
:10041100F97818EF2FFFEE33FEED33FDEC33FCEBF3
:1004210033FB10D703994004EB99FB0FD8E5E4F9AE
:10043100FA227818EF2FFFEE33FEED33FDEC33FC9B
:10044100C933C910D7059BE99A4007EC9BFCE99A8F
:10045100F90FD8E0E4C9FAE4CCFB2275F010EF2FD4
:10046100FFEE33FEED33FDCC33CCC833C810D707D4
:100471009BEC9AE899400AED9BFDEC9AFCE899F80F
:0E0481000FD5F0DAE4CDFBE4CCFAE4C8F922A2
:0E048F00C3E49FFFE49EFEE49DFDE49CFC227E
:10049D00E8600FECC313FCED13FDEE13FEEF13FF3D
:0304AD00D8F12261
:0C04B000ECF608EDF608EEF608EFF62278
:0C04BC00ECF0A3EDF0A3EEF0A3EFF022B3
:1004C800A8828583F0D083D0821204DF1204DF1261
:1004D80004DF1204DFE473E493A3C583C5F0C58386
:1004E800C8C582C8F0A3C583C5F0C583C8C582C87E
:0104F80022E1
:10151B000217B0E493A3F8E493A34003F68001F21F
:10152B0008DFF48029E493A3F85407240CC8C333D1
:10153B00C4540F4420C8834004F456800146F6DFA0
:10154B00E4800B0102040810204080900B62E47EC3
:10155B00019360BCA3FF543F30E509541FFEE49395
:10156B00A360010ECF54C025E060A840B8E493A35C
:10157B00FAE493A3F8E493A3C8C582C8CAC583CA87
:10158B00F0A3C8C582C8CAC583CADFE9DEE780BE3F
:010D5D000095
:00000001FF
