:030000000200B14A
:1000B10078FFE4F6D8FD9000007FFF7E02E4F0A314
:0A00C100DFFCDEFA75815F02010624
:10095E00015100024F000002520000025600000238
:03096E0054000032
:1008790043A23C90F02A743CF0A3E4F043A1F89021
:10088900F01A74F8F0A3E4F053A2BF90F02AE04400
:1008990040F0A3E054BFF0439A3090F00A7430F06E
:1008A900A3E4F090F005F0D294D297D2A4D295D2D5
:1008B900A2D2A5D293D296D2A3D285D284534EFE88
:0108C900220C
:10094A008E5C8F5DE55D155DAE5C7002155CFFEF38
:04095A004E70F122C8
:0408CA008E588F595C
:1008CE007596AA759655759701E5591559AE5870D6
:1008DE00021558FFEF4E601D755A00755B00C3E59B
:1008EE005B94B3E55A940350E0055BE55B7002053B
:0508FE005A80EB80D4DC
:0109030022D1
:100935008E5E8F5FE55F455E600AE55F155F70025D
:05094500155E80F022A8
:1009040020A6270555E5557002055420A615C3E514
:1009140055942CE5549401400A75540075550043D0
:100924004E0122755400755500227554007555000A
:0109340022A0
:10000E00C285C2A5C296C2937F3C7E001208CAD298
:10001E0096D2A3C293C2A2C2A57F3C7E001208CA8A
:10002E00D293D296D2A3C295C2A2C2A57F3C7E0025
:10003E001208CAD2A5C295C2A4C2A27F3C7E0012EB
:10004E0008CAD2A2D2A5C295C297C2A47F3C7E0096
:10005E001208CAD295D2A2D2A5C294C297C2A47FC8
:10006E003C7E001208CAD2A4C294C297C2A37F3C9F
:10007E007E001208CAD297D2A4C294C296C2A37F9F
:10008E003C7E001208CAD294D297D2A4C293C297D1
:10009E00C2A37F3C7E001208CAD2857F017E001269
:0300AE0008CA225B
:080353008E088F098C0A8D0B46
:10035B00E509250BF50DE508350AF50CE509250B27
:10036B00FFE508350AFE7C017D901208248E0E8F66
:10037B000F751000751101C3E511950FE50E648023
:10038B00F8E5106480985032C2A3C296C293AE08AF
:10039B00AF097C017D90120824120935D2A3D296A5
:1003AB00D293AE0AAF0B7C017D9012082412093553
:0A03BB000511E5117002051080BD68
:0103C5002215
:1004AC00754F717550C7E54E20E02D74B02550F591
:1004BC005074FF354FF54FC374C79550FF74719549
:1004CC004FFEAD50AC4F120353C3E5509450E54F63
:1004DC00940050D2800280CE754F717550C7E54E96
:1004EC0020E02C74B02550F55074FF354FF54FC3F8
:1004FC0074C79550FD7471954FFCAF50AE4F1203FD
:10050C0053C3E5509450E54F940050D22280CF2233
:0803C6008E128F138C148D15AB
:1003CE00E5132515F517E5123514F516E513251564
:1003DE00FFE5123514FE7C017D901208248E188FD5
:1003EE0019751A00751B01C3E51B9519E518648074
:1003FE00F8E51A6480985032C2A5C2A2C295AE1218
:10040E00AF137C017D90120824120935D2A5D2A219
:10041E00D295AE14AF157C017D90120824120935C9
:0A042E00051BE51B7002051A80BDD6
:0104380022A1
:10051C00754F717550C7E54E20E02D74B02550F520
:10052C005074FF354FF54FC374C79550FF747195D8
:10053C004FFEAD50AC4F1203C6C3E5509450E54F7F
:10054C00940050D2800280CE754F717550C7E54E25
:10055C0020E02C74B02550F55074FF354FF54FC387
:10056C0074C79550FD7471954FFCAF50AE4F12038C
:10057C00C6C3E5509450E54F940050D22280CF2250
:080439008E1C8F1D8C1E8D1F0F
:10044100E51D251FF521E51C351EF520E51D251FA0
:10045100FFE51C351EFE7C017D901208248E228F43
:1004610023752400752501C3E5259523E5226480C4
:10047100F8E5246480985032C2A4C297C294AE1C9D
:10048100AF1D7C017D90120824120935D2A4D297A8
:10049100D294AE1EAF1F7C017D9012082412093543
:0A04A1000525E5257002052480BD45
:0104AB00222E
:10058C00754F717550C7E54E20E02D74B02550F5B0
:10059C005074FF354FF54FC374C79550FF74719568
:1005AC004FFEAD50AC4F120439C3E5509450E54F9B
:1005BC00940050D2800280CE754F717550C7E54EB5
:1005CC0020E02C74B02550F55074FF354FF54FC317
:1005DC0074C79550FD7471954FFCAF50AE4F12041B
:1005EC0039C3E5509450E54F940050D22280CF226D
:0801D6008E268F278C288D294D
:1001DE00E5272529F52BE5263528F52AE5272529B6
:1001EE00FFE5263528FE7C017D901208248E2C8F8B
:1001FE002D752E00752F01C3E52F952DE52C6480EE
:10020E00F8E52E648098503EC2A3C296C293C2A552
:10021E00C2A2C295AE26AF277C017D901208241291
:10022E000935D2A3D296D293D2A5D2A2D295AE2818
:10023E00AF297C017D90120824120935052FE52F78
:06024E007002052E80B1D4
:010254002287
:1005FC00754F717550C7E54E20E02D74B02550F540
:10060C005074FF354FF54FC374C79550FF747195F7
:10061C004FFEAD50AC4F1201D6C3E5509450E54F90
:10062C00940050D2800280CE754F717550C7E54E44
:10063C0020E02C74B02550F55074FF354FF54FC3A6
:10064C0074C79550FD7471954FFCAF50AE4F1201AD
:10065C00D6C3E5509450E54F940050D22280CF225F
:080255008E308F318C328D33A5
:10025D00E5312533F535E5303532F534E5312533E6
:10026D00FFE5303532FE7C017D901208248E368FED
:10027D0037753800753901C3E5399537E536648032
:10028D00F8E538648098503EC2A4C297C294C2A5C6
:10029D00C2A2C295AE30AF317C017D9012082412FE
:1002AD000935D2A4D297D294D2A5D2A2D295AE328C
:1002BD00AF337C017D901208241209350539E539DB
:0602CD007002053880B14B
:0102D3002208
:10066C00754F717550C7E54E20E02D74B02550F5CF
:10067C005074FF354FF54FC374C79550FF74719587
:10068C004FFEAD50AC4F120255C3E5509450E54FA0
:10069C00940050D2800280CE754F717550C7E54ED4
:1006AC0020E02C74B02550F55074FF354FF54FC336
:1006BC0074C79550FD7471954FFCAF50AE4F12023C
:1006CC0055C3E5509450E54F940050D22280CF2270
:08014B008E3A8F3B8C3C8D3D88
:10015300E53B253DF53FE53A353CF53EE53B253DA1
:10016300FFE53A353CFE7C017D901208248E408FDA
:1001730041754200754301C3E5439541E540648001
:10018300F8E542648098504AC2A4C297C294C2A5BB
:10019300C2A2C295C293C296C2A3AE3AAF3B7C0140
:1001A3007D90120824120935D2A4D297D294D2A5F5
:1001B300D2A2D295D293D296D2A3AE3CAF3D7C01CC
:1001C3007D901208241209350543E5437002054268
:0201D30080A505
:0101D5002207
:1006DC00754F717550C7E54E20E02D74B02550F55F
:1006EC005074FF354FF54FC374C79550FF74719517
:1006FC004FFEAD50AC4F12014BC3E5509450E54F3B
:10070C00940050D2800280CE754F717550C7E54E63
:10071C0020E02C74B02550F55074FF354FF54FC3C5
:10072C0074C79550FD7471954FFCAF50AE4F1201CC
:10073C004BC3E5509450E54F940050D22280CF2209
:0802D4008E448F458C468D47D6
:1002DC00E5452547F549E5443546F548E5452547C7
:1002EC00FFE5443546FE7C017D901208248E4A8F32
:1002FC004B754C00754D01C3E54D954BE54A64803B
:10030C00F8E54C648098503EC2A4C297C294C29344
:10031C00C296C2A3AE44AF457C017D901208241254
:10032C000935D2A4D297D294D293D296D2A3AE4608
:10033C00AF477C017D90120824120935054DE54D1F
:06034C007002054C80B1B7
:010352002288
:10074C00754F717550C7E54E20E02D74B02550F5EE
:10075C005074FF354FF54FC374C79550FF747195A6
:10076C004FFEAD50AC4F1202D4C3E5509450E54F40
:10077C00940050D2800280CE754F717550C7E54EF3
:10078C0020E02C74B02550F55074FF354FF54FC355
:10079C0074C79550FD7471954FFCAF50AE4F12025B
:1007AC00D4C3E5509450E54F940050D22280CF2210
:1007BC001208791209721209827FC47E091208CAC2
:1007CC007FC47E091208CA7FC47E091208CA7596B6
:1007DC00AA759655759701E54E20E020C285120446
:1007EC00AC12074C12051C12058C1205FC12066C7F
:1007FC001206DCD2857F0A7E001208CAE54E30E074
:10080C00CDD294D297D2A4D295D2A2D2A5D293D241
:08081C0096D2A3C28580B72229
:10097200438901438E08758CF0758A5F4388102283
:0909820075A80275B800D2AF227D
:03000B00020003ED
:07000300758CF0758A5F3275
:1000CB000207BCE493A3F8E493A34003F68001F288
:1000DB0008DFF48029E493A3F85407240CC8C33336
:1000EB00C4540F4420C8834004F456800146F6DF05
:1000FB00E4800B010204081020408090095EE47E2E
:10010B00019360BCA3FF543F30E509541FFEE493F9
:10011B00A360010ECF54C025E060A840B8E493A3C0
:10012B00FAE493A3F8E493A3C8C582C8CAC583CAEB
:10013B00F0A3C8C582C8CAC583CADFE9DEE780BEA3
:010971000085
:10082400BC000BBE0029EF8DF084FFADF022E4CCB8
:10083400F875F008EF2FFFEE33FEEC33FCEE9DEC81
:10084400984005FCEE9DFE0FD5F0E9E4CEFD22EDC7
:10085400F8F5F0EE8420D21CFEADF075F008EF2F11
:10086400FFED33FD4007985006D5F0F222C398FD02
:050874000FD5F0EA229F
:00000001FF
