:100000000C28FFFFFFFFFFFFFE00030EF0000408B7
:10001000F1000A08F200552D0D28773084007B305E
:10002000B6252030831384005730B62583014B2C2E
:100030008316861CF3287A08031D2428FA01FA0A7D
:10004000F8018312BA01D625F9018312B7014408D9
:10005000770203183428122103192A02031C3628B8
:10006000AA01AB01F70A3628AA01AB014F08031910
:100070005928D6250630F800633077020318572830
:100080004F0B5728FB30C30A4302031C08000F30F4
:10009000C301D201CF017702031C55280E30F300B3
:1000A00077088E25FF3EC2000800C2010800C30188
:1000B000080004302D025E3003192C020318632857
:1000C0000F30C0017C2805302D02FA3003192C02B4
:1000D000031870281930C001C00ABF00BE017D2876
:1000E0005408031D7D28C930BE0A3E02031C7B282C
:1000F0000230BE01C0001930BF0002304006031DAF
:10010000972800302F02053003192E020318972874
:10011000A80A0319A90A00302902C83003192802C5
:10012000031C9928A801A901D201D20A9928A80183
:10013000A901520803199F280630C200D62D0F309E
:1001400077020318A528C201AB280E30F300770808
:100150008E25FF3EC20006302D020A3003192C0204
:100160000318BD283F08D700D8012F085802031DE7
:10017000BB282E0857020318CC28BC0A3C083B02B7
:100180000318CA2802303A02031CC728BA033230C7
:10019000BC01BB00BD01EC2806302D02093003195B
:1001A0002C020318EC283F08FC3ED700FF30031850
:1001B0000030D8002F02031DDF2857082E02031835
:1001C000EC28BD0A3D083B020318EB284B30BD016B
:1001D0003A02031CBA0ABC011518EF28A9259E0192
:1001E0003A08990008001430FA018312D201CF01B5
:1001F000C001BF01BA01BE01C201BB00D62577080C
:1002000003190F297708440203180F291221031933
:100210002A02031C0800AA01AB01F7030800AA0187
:10022000AB010800AA0A0319AB0A07302B02D1342C
:100230008312DC00F321E601E7018316161D731D0E
:100240002A297308960084308312D700D70B2629F9
:1002500029292C297308960083125C1E34298316E1
:1002600016170F308312DC05DD015C08D700013062
:100270000310D70DFF3E0310031D3929570D4138D8
:1002800083169500000000000000000083169514FE
:100290008312DB018316951C55294E294F295029BD
:1002A00051298312DB0B4A29003419088312E60016
:1002B000E701E60EE70EF030E70566080F39E704C0
:1002C000F030E6058316180E0F398312E60703187F
:1002D000E70A64086504031D6F29FC21812967086A
:1002E0006502031D75296608640203187929FC213B
:1002F000852963086702031D7F29620866020318C7
:1003000085296708E3006608E2006608D7006708E9
:10031000D800D901DA015708DE075808031103187D
:10032000013E031DDF07590803110318013E031D99
:10033000E0075A0803110318013E031DE1070A30C4
:10034000DD0A5D02031C35296408D7006508E42135
:10035000031C5A0FE1026208D7006308D800D901D4
:10036000DA015A086102031DBF2959086002031D02
:10037000BF2958085F02031DBF2957085E02031CEE
:10038000C9296208D7006308E421031C5A0FE1025F
:10039000CD29DE01DF01E001E1015E08D7005F0841
:1003A000D8006008D9006108DA0003300310DA0CC5
:1003B000D90CD80CD70CFF3E031DD6295808B50020
:1003C0005708B400F321A534D800D901DA01570841
:1003D000DE025808031C580FDF025908031C590F8E
:1003E000E0025A080800DE01DF01E001E101E2015C
:1003F000E301E401E50108006708E5006608E400A0
:1004000008007A080530F3000319082A0430092A85
:1004100000301821D600A5305606031DA92A7A08F7
:100420000319222A00303502D33003193402031C89
:10043000222A0B30C50A4502031C232A0230C501BB
:10044000CF00232AC5013508AF003408AE00790873
:100450000319392A00302F02DD3003192E02031C44
:10046000392A3330CE0A4E02031C3A2ACE01F90152
:100470003A2ACE0106307902003003184E2A2F02A4
:10048000293003192E02031C4D2A0630C90A4902DD
:10049000031CA52A0530C900A52A00302F022C30E4
:1004A00003192E020318452A0B30E900790B5A2A4A
:1004B0000530772A02307906031D602A0630772A34
:1004C00003307906031D662A0730772A043079063F
:1004D000031D6C2A0830772A05307906031D722A1D
:1004E0000930772A06307906031D782A0A30E90791
:1004F0004908031DC9036908F400F5012F087502B6
:10050000031D842A2E08740203189F2A0430C80A87
:100510004802031CA52A0330C8004608031D9C2A74
:100520007908F40001300310F40DFF3E0310031DA1
:10053000942A740D483E9D2A4A08C700A52AC8017E
:1005400047084A0203189C2AC7039E0147089A00DD
:1005500008008316950196018530F400F40BAE2A4D
:1005600008000530F30002301821D600A5305606E9
:10057000031D192B3508AD003408AC0004302D02E2
:100580005D3003192C020318DF2AC401A20A0319E3
:10059000A30A03302302213003192202031C0C2B6F
:1005A000A201A301B701B70A79080319DC2A783040
:1005B000A400A5017908B800F701F9010C2B05305A
:1005C000A201A3012D023C3003192C022C08031CAC
:1005D000F62AC43EF4002D080318013EFA3EF50049
:1005E0000310F50CF40C74080D3E052BA33EF4002B
:1005F0002D080318013EFB3EF50004300310F50CF6
:10060000F40CFF3E031DFE2A7408C400643044024B
:10061000031C0C2B6330C4007A080319202B07300D
:100620002D02463003192C02031C202BCF01CF0AC8
:10063000202B8316950196018530F400F40B1E2BB8
:100640000530F30003301821D600A5305606031DEF
:10065000542B7A080319080000303502653003195D
:100660003402031C0800033035022B300319340216
:100670000318492B34082C02F4003508031C350AF2
:100680002D02F500033075022B3003197402031C90
:10069000522BFB30D00A5002031C08000230D0015C
:1006A000CF000800D001080083169501960185301F
:1006B000F400F40B592B08006A080319692B063063
:1006C000EA03F80044087702031808004408F7001A
:1006D0000800240825040319872B0130A4020030E8
:1006E000031CA503A5022830F300F4012508F60039
:1006F0002408F500F1240030740214300319730249
:100700000318852B3808F8000800F8010800410894
:100710000319A12B0E30C1037702031C952B0E3059
:10072000F30077088E25F800080006307702031CD6
:100730009C2BF801F80A080032305402031C992B54
:10074000852B79080319A72B7908F80008007A0887
:100750000319852B3230F30054087225003A031D2B
:1007600008000730F80A7802031C08004208F80065
:1007700008001F30B90A3902031C08000630B9010D
:10078000CD0A4D020318CD0183168612C73083129D
:10079000860583168516383083128504012C780867
:1007A00003190800E73085050616080002307802B4
:1007B000031C0800CF308505861608000330780238
:1007C000031C0800E7308505861508000430780210
:1007D000031C0800CF30D32B05307802031C08001F
:1007E0008316851283128512861608000630780259
:1007F000031C080083168512831285128316861641
:1008000008004D0884000630040203180800053073
:100810008A00CD300407820008008B0181011F305F
:1008200083168500880186010430831285008601C5
:10083000880083169501960183129501703094000B
:100840000230831689000430831289008E150B173D
:100850008B158B1308308E058D01C8308B058316E0
:10086000060883128D1106080B1064006300000057
:1008700064000000000000000000000083128D19D9
:100880008D110B180B108D188D1083168901831292
:1008900089011525C62D1525C62564308312EA0069
:1008A00064000B3083125102031C582CD101012229
:1008B000831253080319502CD3011820B1227A084F
:1008C000031D672C83123708031D672CC024862460
:1008D0005C237A08031D842C7908031D842C4C08A2
:1008E000031D842C6A08031D842C4108031D842CDD
:1008F00024082504031D842CC830B60A3602031CC4
:10090000502CB6010D24502CB601502C83124608F1
:10091000031DC60379080319BC2C9518902CBE251D
:100920000310790D2B3ECA0005304902031CAC2C84
:10093000A60A0319A70A01302702F5300319260277
:10094000031CAE2CE830A601A701A4000330A500CB
:100950007908B800F901AE2CA601A7015408031DBF
:100960000800A00A0319A10A0330210284300319E8
:1009700020020318F9010800D325A001A1010800F5
:10098000060904393725F400740BE32C79080319A0
:10099000D12C0730F90A7902031C0800F901F90A81
:1009A0000800240825040319DA2CA401A50138083D
:1009B000F900080041080319DF2CC1010800C83004
:1009C000C100D401080002307406031D0800790834
:1009D0000319EC2CF90108001E30F901F90AC600D0
:1009E000DD2C730874040319102DD701D70AF41BEA
:1009F000FD2C0310F30DF40DF62C74087602031D84
:100A0000032D73087502031C0C2D7308F50274087E
:100A1000031CF603F6020310F40CF30CD70BFD2CA9
:100A20007608F4007508F3000800000064008312E3
:100A300081016400723083129400831688010230B1
:100A400087000430831288001F308316850004302D
:100A5000831285008316860183128601F930910086
:100A60008D108E1404309300C0308B000800F3000A
:100A7000730864300319492DCC0A4C02031C00345E
:100A80006430CC004B08031D00340230CB01CB0A8C
:100A900008004C02031C4F2DCC01CB010034063062
:100AA0004C02CC0103180134003483128D1C692DD3
:100AB0008D10A030D50A5502031C662D6430D50177
:100AC000D301D30AD40A54020318D401B9238312E0
:100AD000D10A72088A0071088400700E8300FE0E2D
:100AE0007E0E0900D7000830D800D9015708F4005D
:100AF00007300310F40CFF3E0310031D7A2D590D2F
:100B00007404D9000310D70D73085902031C8A2DF1
:100B10007308D902D80B762D59080800F400F601A5
:100B200073080319A72DF501F50AF31B9A2D03107D
:100B3000F30D942D0310F60D73087402031CA42DFD
:100B40007308F40276140310F30CF50B9A2D760853
:100B50000800B025013099009F0195009D01080013
:100B600096019801643097009E010800640080019E
:100B7000840A0406031900340406B72DB025323068
:100B80009A009F01623095009D0108004130831654
:100B9000950096011D3093000800F62BCF2BD62B25
:100BA000DE2BE62BEC2B9510861008001510061096
:100BB0000800FFFFFFFFFFFFFFFFFFFFFFFFFFFF3B
:100BC000FFFFFFFFFFFFFFFFFFFFFFFFFFFFFFFF35
:100BD000FFFFFFFFFFFFFFFFFFFFFFFFFFFFFFFF25
:100BE000FFFFFFFFFFFFFFFFFFFFFFFFFFFFFFFF15
:100BF000FFFFFFFFFFFFFFFFFFFFFFFFFFFFFFFF05
:00000001FF
